:100000000C9434000C9451000C9451000C94F103A6
:100010000C9451000C9451000C9451000C9451001C
:100020000C9451000C94B5000C9451000C945300A6
:100030000C9451000C9451000C94FE010C9451004E
:100040000C9451000C9451000C941A070C94F00677
:100050000C9451000C9451000C9451000C945100DC
:100060000C9451000C94510011241FBECFEFD8E026
:10007000DEBFCDBF12E0A0E0B1E0E0E1F7E102C0F9
:1000800005900D92A43CB107D9F723E0A4ECB2E0AF
:1000900001C01D92A23EB207E1F70E947D010C94BF
:1000A000860B0C9400001F920F920FB60F92112432
:1000B0002F933F934F935F936F938F939F93EF9300
:1000C000FF9380E090E041E050E0FC01EE0FFF1F65
:1000D000EA53FD4F2081318121303105B1F02230CA
:1000E000310511F1232B71F5FC01EC5FFE4F2081EE
:1000F00065B1FA0102C0EE0FFF1F2A95E2F79F01DA
:1001000020953095262325B91DC0FC01EC5FFE4FDC
:10011000208165B1FA0102C0EE0FFF1F2A95E2F7B8
:100120009F01262B25B90EC0FC01EC5FFE4F2081FC
:1001300065B1FA0102C0EE0FFF1F2A95E2F79F0199
:10014000262725B901968430910509F0BECFFF918D
:10015000EF919F918F916F915F914F913F912F916F
:100160000F900FBE0F901F9018951F920F920FB611
:100170000F9211242F933F938F939F938091C402EA
:100180009091C5028E3191056CF42091D603309187
:10019000D7032130310531F401969093C502809345
:1001A000C4020EC08091D6039091D703019741F409
:1001B0001D9A1092C5021092C40280E090E007C020
:1001C0008091C4029091C5028639910574F4209102
:1001D000D6033091D7032230310539F48C599F4F23
:1001E0009093C5028093C4020BC08091D603909176
:1001F000D703029729F41D9A1092C5021092C402E7
:100200009F918F913F912F910F900FBE0F901F9054
:10021000189510927503109274031092D7031092E0
:10022000D60384B18F6284B9E1E8F0E08081886010
:100230008083EFE6F0E0808182608083E0E7F0E099
:100240008081816080830895E1E8F0E0908194608E
:100250009083282F30E0322F2227330F032E000CFB
:10026000440B550B60E074E284EF90E00E94C907F4
:100270002150310930938900209388000895E1EBE3
:10028000F0E080818B7F80832D981092D7031092AD
:10029000D60308959C01E1EBF0E090819760908394
:1002A0003093D7032093D6030895E1E8F0E08081EE
:1002B0008B7F80831092890010928800089520E03F
:1002C00030E061E070E0F901EC5FFE4F808145B104
:1002D000FB0102C0EE0FFF1F8A95E2F7CF01809568
:1002E0009095842385B92F5F3F4F2430310559F70E
:1002F000109275031092740308950E942A0287E6F3
:1003000090E00E943A070E94090178948CE090E006
:1003100090931703809316031092430310924203A5
:10032000109221031092200388E091E00E949D0723
:100330000F2EFFE3EF2EF1E0FF2EF02D0DE411E084
:10034000CAE2D3E0CC2EDD2E80914203909143038C
:10035000892BD1F32FEF81EE94E021508040904023
:10036000E1F700C000000E94AC0788E291E00E9423
:100370009D0780911603909117039F938F93FF928F
:10038000EF921F930F93DF93CF930E945B088C2D06
:100390009D2D0E949D079FEF21EE84E0915020400B
:1003A0008040E1F700C0000084E591E00E949D07D5
:1003B00010922103109220038DB79EB708960FB6B6
:1003C000F8949EBF0FBE8DBF88ED93E00E94770723
:1003D0008091200390912103892B31F488ED93E0E3
:1003E0000E947B03892B81F380912003909121034C
:1003F000892B09F0A9CF0E94DD06A6CF1F920F928C
:100400000FB60F9211248F939F938091D0029091F9
:10041000D102883C910550F48091D0029091D10294
:1004200001969093D1028093D0020DC01092D10218
:100430001092D0028091CE029091CF0201969093BB
:10044000CF028093CE029F918F910F900FBE0F909D
:100450001F901895EEE6F0E080818260808384B57D
:10046000826084BD89EF87BD85B5836085BDEBE67D
:10047000F0E0808180688083E8E6F0E08081816040
:100480008083209A279808950F931F93CF93DF932B
:10049000EC018091CE029091CF020E9450080E9400
:1004A0004B0806E010E0B8010E94B5070196998359
:1004B00088830E944B08B8010E94B50701969B8370
:1004C0008A830E944B08B8010E94B50701969D835C
:1004D0008C830E944B08B8010E94B50701969F8348
:1004E0008E83DF91CF911F910F910895AF92BF92AC
:1004F000CF92DF92EF92FF920F931F93CF93DF93F0
:10050000EEE3F3E0118210821382128260911803ED
:100510007091190300912203109123036017710752
:1005200031F481E090E090933F0380933E0340914B
:100530001A0350911B03C0912403D09125034C173B
:100540005D0739F4EEE3F3E08081918101969183B8
:10055000808320911C0330911D03A0912603B0914C
:1005600027032A173B0739F4EEE3F3E080819181FA
:10057000019691838083A0901E03B0901F03809109
:10058000280390912903A816B90679F40F2EFEE3EB
:10059000CF2EF3E0DF2EF02DF601E080F180FFEFAB
:1005A000EF1AFF0AF601F182E0820417150739F409
:1005B000EE24E394F12CF0924103E0924003021701
:1005C000130779F40F2EFEE3CF2EF3E0DF2EF02D8C
:1005D000F601E280F380FFEFEF1AFF0AF601F382E3
:1005E000E2820A151B0569F40F2EFEE3EF2EF3E0FD
:1005F000FF2EF02DF701028113810F5F1F4F138330
:1006000002836C177D0769F40F2EFEE3EF2EF3E0F3
:10061000FF2EF02DF701028113810F5F1F4F13830F
:100620000283C217D30769F40F2EFEE3EF2EF3E027
:10063000FF2EF02DF701028113810F5F1F4F1383EF
:100640000283CA15DB0541F40EE313E0F801C28111
:10065000D3812196D383C2836A177B0741F40EE3CB
:1006600013E0F801C281D3812196D383C2834A1754
:100670005B0741F40EE313E0F801C281D3812196B8
:10068000D383C283AA15BB0559F4AEE3B3E0129637
:10069000ED91FC91139731961396FC93EE9312977C
:1006A0006817790741F4EEE3F3E0628173816F5FCD
:1006B0007F4F738362834817590741F4EEE3F3E0F9
:1006C000428153814F5F5F4F53834283281739071D
:1006D00039F4EEE3F3E08281938101969383828380
:1006E000DF91CF911F910F91FF90EF90DF90CF900E
:1006F000BF90AF900895CF92DF92EF92FF920F9349
:100700001F93CF93DF93FC0180819FEC980F96306D
:1007100040F4C82ED12C20E3C21AD10881E090E029
:1007200004C0C12CD12C80E090E021813FEC320F3D
:10073000363030F4E22EF12C20E3E21AF10804C046
:10074000E12CF12C80E090E002812FEC200F26308C
:1007500020F410E00053110904C000E010E080E034
:1007600090E0C3812FEC2C0F263028F4D0E0E097E6
:10077000009749F402C0C0E0D0E081E691E00E9419
:100780009D0780E090E0E2E2F3E0D182C082F38254
:10079000E28215830483D783C683DF91CF911F91B3
:1007A0000F91FF90EF90DF90CF900895E6E7F3E090
:1007B000A4E4B3E086ED93E01182108213821282EA
:1007C000158214821782168211961C921E9213961D
:1007D0001C921E92129738961496E817F90761F743
:1007E00008951F920F920FB60F9211242F933F93EB
:1007F0004F935F936F937F938F939F93AF93BF9329
:10080000CF93DF93EF93FF931F993CC080914203F6
:1008100090914303892B31F081E090E09093210384
:10082000809320030E94D6030E9455010E943F013D
:1008300088E193E00E94440282E891E00E949D07D3
:10084000C8E1D3E08881805D0E9462078A81805D73
:100850000E9462078C81805D0E9462078E81805DAC
:100860000E94620781EC92E00E949D078CE090E07C
:10087000909317038093160381E090E090934303D5
:1008800080934203FF91EF91DF91CF91BF91AF91A0
:100890009F918F917F916F915F914F913F912F9198
:1008A0000F900FBE0F901F9018954F925F926F920E
:1008B0007F928F929F92AF92BF92CF92DF92EF92F0
:1008C000FF920F931F93CF93DF93CDB7DEB76E9751
:1008D0000FB6F894DEBF0FBECDBF80E991E00E9455
:1008E0009D072FEF31EE84E0215030408040E1F74A
:1008F00000C0000020911603309117038CE090E0B7
:10090000821B930B181619060CF05BC006E713E068
:10091000E12CF12C0F2EF9EBAF2EF1E0BF2EF02DD4
:100920000F2EF9EC6F2EF1E07F2EF02D0F2EFFEC45
:100930004F2EF1E05F2EF02DFE0131966F010F2E4C
:10094000FCE08F2E912CF02DFFEFEF1AFF0AF8013B
:1009500087818F9386818F9385818F9384818F93F5
:1009600083818F9382818F9381818F9380818F93F5
:10097000BF92AF92FF92EF927F926F925F924F92EF
:10098000DF92CF920E945B08C6010E949D07FFEF95
:1009900021EE34E0F15020403040E1F700C000008B
:1009A0008091160390911703085F1F4FF401E81B15
:1009B000F90B0FB6F894DEBF0FBECDBFEE16FF06E3
:1009C0001CF26E960FB6F894DEBF0FBECDBFDF915E
:1009D000CF911F910F91FF90EF90DF90CF90BF903C
:1009E000AF909F908F907F906F905F904F90089501
:1009F0000F931F93CF93DF93CDB7DEB7A8970FB6B2
:100A0000F894DEBF0FBECDBF2091160330911703BF
:100A10008BE090E0DC01A21BB30BAA0FBB1FAA0F57
:100A2000BB1FAA0FBB1FAA58BC4F28E0E2E2F3E0AD
:100A300001900D922A95E1F740911603509117030A
:100A4000AEE3B3E02D913C911197FC01E41BF50B53
:100A5000EE0FFF1FEE0FFF1FEC5BFC4F3183208377
:100A60004091160350911703FC01E41BF50BEE0FA8
:100A7000FF1FEE0FFF1FEC5BFC4F12968D919C91B8
:100A80001397938382832430310509F071C081E08C
:100A900090E00E944A0180EE91E00E949D072FEFB6
:100AA00081EE94E0215080409040E1F700C00000CA
:100AB0000E94550480911603909117030B9711F52E
:100AC000209116033091170385EF91E09F938F9348
:100AD0008CE090E0821B930B9F938F938BEF91E0C0
:100AE0009F938F938AE092E09F938F93CE0101961C
:100AF0009F938F930E945B080FB6F894DEBF0FBEE2
:100B0000CDBF21C0209116033091170383E192E0FD
:100B10009F938F938CE090E0821B930B9F938F9316
:100B20008BEF91E09F938F938AE092E09F938F9356
:100B3000CE0101969F938F930E945B080FB6F894A5
:100B4000DEBF0FBECDBFCE0101960E949D079FEF75
:100B5000E1EEF4E09150E040F040E1F700C0000029
:100B60008AE192E00E949D07109243031092420393
:100B7000E2E2F3E011821082138212821582148263
:100B800017821682EEE3F3E0118210821382128242
:100B90008091160390911703892B09F042C082E0DF
:100BA00090E00E944A0181EC92E00E949D070E9421
:100BB00055042FEF81EE94E0215080409040E1F702
:100BC00000C0000087E392E00E949D0708E113E067
:100BD000F8018081805D0E946207F8018281805D5A
:100BE0000E946207F8018481805D0E946207F8011B
:100BF0008681805D0E94620781EC92E00E949D07E1
:100C0000FFEF21EE84E0F15020408040E1F700C08A
:100C100000008BE492E00E949D0710924303109223
:100C20004203A8960FB6F894DEBF0FBECDBFDF918A
:100C3000CF911F910F9108950F931F93CF93DF933F
:100C4000CDB7DEB72A970FB6F894DEBF0FBECDBF83
:100C5000E6ECF2E011821082138212821582148275
:100C60001782168280913E0390913F0364E070E00A
:100C7000681B790B1816190684F420E030E041E077
:100C800050E0F901EE0FFF1FEA53FD4F51834083FF
:100C90002F5F3F4F82179307A1F716161706E4F44C
:100CA0002091400330914103280F391F8217930789
:100CB0009CF48430910584F442E050E0FC01EE0F96
:100CC000FF1FEA53FD4F518340830196821793071C
:100CD0001CF48430910591F7E6ECF2E066817781AF
:100CE0004481558122813381808191817F936F93EB
:100CF0005F934F933F932F939F938F938FE692E051
:100D00009F938F938E010F5F1F4F1F930F930E942E
:100D10005B08C8010E949D070FB6F894DEBF0FBEA6
:100D2000CDBF2A960FB6F894DEBF0FBECDBFDF91C0
:100D3000CF911F910F910895CF93DF930E945F0190
:100D40000E941C0685E00E9424018DE792E00E942B
:100D50009D07CEE3D3E08881805D0E94620781EC2D
:100D600092E00E949D072FEF81EE94E02150804099
:100D70009040E1F700C0000087E992E00E949D07E3
:100D80008A81805D0E94620781EC92E00E949D074B
:100D90002FEF81EE94E0215080409040E1F700C0B9
:100DA0000000809116039091170301979093170309
:100DB00080931603DF91CF91089588ED93E00E9410
:100DC0009D0781EC92E00E949D070E9476020E949E
:100DD0009C060E94F8048FEB92E00E949D07089504
:100DE0001F920F920FB60F9211248F939F93EF9340
:100DF000FF939091D3028091D202981769F0E0910D
:100E0000D202EF5FEF71E093D202F0E0EC52FD4FBF
:100E100080818093C60005C0E1ECF0E080818F7D89
:100E20008083FF91EF919F918F910F900FBE0F9054
:100E30001F9018951F920F920FB60F9211248F9347
:100E40009F93EF93FF938091C600E091F502EF5FCF
:100E5000EF71E093F5029091F402F0E0EA50FD4F5B
:100E60008083FF91EF919F918F910F900FBE0F9014
:100E70001F9018959093C5008093C40088E98093D3
:100E8000C1001092F4021092F5021092D202109258
:100E9000D302089506C08091200390912103892BED
:100EA00031F49091F5028091F4029817A1F3E0914A
:100EB000F402EF5FEF71E093F402F0E0EA50FD4FCF
:100EC000808108952091D3022F5F2F719091D202DB
:100ED0002917E1F3E22FF0E0EC52FD4F80832093DD
:100EE000D302E1ECF0E08081806280830895EF928C
:100EF000FF920F931F93CF937C01C0E007C08091B6
:100F0000200390912103892B51F4CF5F87010C0FAF
:100F1000111D0E944A07F80180838A3081F78AE018
:100F2000F8018083CF5FF701EC0FF11D1082CF91A4
:100F30001F910F91FF90EF900895CF93DF93EC01F5
:100F40008881882331F021960E946207899181115E
:100F5000FBCFDF91CF9108951092F4021092F50229
:100F60001092D2021092D302089597FB072E16F426
:100F7000009407D077FD09D00E94EB0707FC05D04D
:100F80003EF4909581959F4F0895709561957F4FA0
:100F90000895A1E21A2EAA1BBB1BFD010DC0AA1FBA
:100FA000BB1FEE1FFF1FA217B307E407F50720F0D2
:100FB000A21BB30BE40BF50B661F771F881F991F4D
:100FC0001A9469F760957095809590959B01AC0196
:100FD000BD01CF010895AA1BBB1B51E107C0AA1F89
:100FE000BB1FA617B70710F0A61BB70B881F991FCA
:100FF0005A95A9F780959095BC01CD0108958F92DF
:101000009F92AF92BF92CF92DF92EF92FF92CF93D7
:10101000DF93EC01688179818A819B81611571057B
:101020008105910521F464E279ED8BE597E02DE1EE
:1010300033EF41E050E00E940E0B49015A019B0141
:10104000AC01A7EAB1E40E942D0B6B017C01ACEE70
:10105000B4EFA50194010E943B0BDC01CB018C0D88
:101060009D1DAE1DBF1DB7FF03C00197A109B0486C
:1010700088839983AA83BB839F77DF91CF91FF9069
:10108000EF90DF90CF90BF90AF909F908F9008959A
:101090000E94FF07089580E091E00E94FF070895F5
:1010A000A0E0B0E08093000190930101A0930201C1
:1010B000B09303010895AEE0B0E0E1E6F8E00C94EF
:1010C0004E0B0D891E8986E08C831A8309838FEF6E
:1010D0009FE79E838D83AE01475E5F4F6F89788D5A
:1010E000CE0101960E947D08EF81F885E00FF11F87
:1010F00010822E96E4E00C946A0BABE0B0E0E3E8DB
:10110000F8E00C94400B6C017B018A01FC01178212
:101110001682838181FFCCC1CE0101963C01F6018C
:101120009381F70193FD859193FF81917F0188233E
:1011300009F4BAC1853239F493FD859193FF819109
:101140007F01853229F4B60190E00E94740AE7CF4E
:10115000912C212C312CFFE1F315D8F08B3279F052
:1011600038F4803279F08332A1F4232D20611DC040
:101170008D3261F0803369F4232D216016C0832DF8
:101180008260382EE32DE4603E2E2AC0F32DF860F5
:101190001DC037FC2DC020ED280F2A3040F08E32C4
:1011A000B9F436FC81C1232D2064322E19C036FEDD
:1011B00006C08AE0989E200D1124922E11C0EAE00C
:1011C0002E9E200D1124222EF32DF0623F2E08C0FA
:1011D0008C3621F4832D8068382E02C0883641F485
:1011E000F70193FD859193FF81917F018111B3CF29
:1011F000982F9F7D9554933028F40C5F1F4F9FE3E9
:1012000099830DC0833631F0833771F0833509F04F
:1012100059C021C0F801808189830E5F1F4F882447
:101220008394912C530113C02801F2E04F0E511CFE
:10123000F801A080B18036FE03C0692D70E002C0C5
:101240006FEF7FEFC5010E94690A4C018201F32D07
:10125000FF773F2E16C0280122E0420E511CF801F4
:10126000A080B18036FE03C0692D70E002C06FEF30
:101270007FEFC5010E945E0A4C01F32DF0683F2EFE
:10128000820133FC1BC0822D90E088169906B0F4D1
:10129000B60180E290E00E94740A2A94F4CFF5012E
:1012A00037FC859137FE81915F01B60190E00E9485
:1012B000740A21102A9421E0821A91088114910461
:1012C00071F7E8C0843611F0893641F5F80137FE30
:1012D00007C060817181828193810C5F1F4F08C0BC
:1012E00060817181072E000C880B990B0E5F1F4FD8
:1012F000F32DFF763F2E97FF09C09095809570954E
:1013000061957F4F8F4F9F4FF0683F2E2AE030E06E
:10131000A3010E94B00A882E861845C0853731F493
:10132000232D2F7EB22E2AE030E025C0932D997F09
:10133000B92E8F36C1F018F4883579F0B5C08037F2
:1013400019F0883721F0B0C0E92FE061BE2EB4FE5D
:101350000DC0FB2DF460BF2E09C034FE0AC0292F3A
:101360002660B22E06C028E030E005C020E130E063
:1013700002C020E132E0F801B7FE07C06081718150
:10138000828193810C5F1F4F06C06081718180E074
:1013900090E00E5F1F4FA3010E94B00A882E8618AE
:1013A000FB2DFF773F2E36FE0DC0232D2E7FA22E64
:1013B000891458F434FE0BC032FC09C0832D8E7E94
:1013C000A82E05C0B82CA32C03C0B82C01C0B92C82
:1013D000A4FE0FC0FE01E80DF11D8081803321F4D1
:1013E0009A2D997EA92E09C0A2FE06C0B394B3948B
:1013F00004C08A2D867809F0B394A3FC11C0A0FE26
:1014000006C0B21488F4280C922C9B180EC0B2149B
:1014100060F4B60180E290E00E94740AB394F7CFC2
:10142000B21418F42B1802C0982C212CA4FE10C062
:10143000B60180E390E00E94740AA2FE17C0A1FCEE
:1014400003C088E790E002C088E590E0B6010CC0D8
:101450008A2D867859F0A1FE02C08BE201C080E29D
:10146000A7FC8DE2B60190E00E94740A891438F45A
:10147000B60180E390E00E94740A9A94F7CF8A94B0
:10148000F301E80DF11D8081B60190E00E94740A1D
:101490008110F5CF222009F442CEB60180E290E01F
:1014A0000E94740A2A94F6CFF6018681978102C0C1
:1014B0008FEF9FEF2B96E2E10C945C0BFC01059003
:1014C000615070400110D8F7809590958E0F9F1F46
:1014D0000895FC016150704001900110D8F780958B
:1014E00090958E0F9F1F08950F931F93CF93DF93B7
:1014F000FB01238121FD03C08FEF9FEF2CC022FF52
:1015000016C046815781248135814217530744F420
:10151000A081B1819D012F5F3F4F318320838C9348
:10152000268137812F5F3F4F3783268314C08B017D
:10153000EC01FB010084F185E02D0995892BE1F692
:10154000D80116968D919C911797019617969C93AA
:101550008E931697CE01DF91CF911F910F91089531
:10156000FA01AA27283051F1203181F1E8946F93D4
:101570006E7F6E5F7F4F8F4F9F4FAF4FB1E03ED07A
:10158000B4E03CD0670F781F891F9A1FA11D680F18
:10159000791F8A1F911DA11D6A0F711D811D911D4B
:1015A000A11D20D009F468943F912AE0269F1124C0
:1015B0003019305D3193DEF6CF010895462F477024
:1015C000405D4193B3E00FD0C9F7F6CF462F4F707F
:1015D000405D4A3318F0495D31FD4052419302D0DD
:1015E000A9F7EACFB4E0A695979587957795679583
:1015F000BA95C9F700976105710508959B01AC0183
:101600000A2E06945795479537952795BA95C9F7A9
:10161000620F731F841F951FA01D0895052E97FB51
:101620001EF400940E94250B57FD07D00E94C907A5
:1016300007FC03D04EF40C94250B50954095309543
:1016400021953F4F4F4F5F4F08959095809570952E
:1016500061957F4F8F4F9F4F08950E94770BA59FF5
:10166000900DB49F900DA49F800D911D112408959D
:10167000B7FF0C942D0B0E942D0B821B930B08952A
:101680002F923F924F925F926F927F928F929F9292
:10169000AF92BF92CF92DF92EF92FF920F931F9380
:1016A000CF93DF93CDB7DEB7CA1BDB0B0FB6F89431
:1016B000DEBF0FBECDBF09942A88398848885F8471
:1016C0006E847D848C849B84AA84B984C884DF80E2
:1016D000EE80FD800C811B81AA81B981CE0FD11DC6
:1016E0000FB6F894DEBF0FBECDBFED010895A29FE7
:1016F000B001B39FC001A39F700D811D1124911DE6
:10170000B29F700D811D1124911D0895F894FFCF93
:1017100001000000000102035072657373207265BE
:1017200073657420746F20737461727420746865BB
:101730002067616D650D0A00402D2D2D2D2D2D2D5D
:101740002D2D2D2D2D2D2D2D2D2D2D400D0A0074DF
:1017500075726E73206C656674203A2000257325BF
:10176000640D0A00696E70757420636F64653A20B9
:10177000006F6E6C792075736520746865206E75D6
:101780006D626572732031203C2D3E203620200D85
:101790000A000D0A0D0A4445425547203A3A2000F6
:1017A0004350203D20636F727265637420706C61DA
:1017B0006365642C205750203D2077726F6E672040
:1017C000706C616365640D0A003A2009796F7520B9
:1017D000706C617965643A20007475726E20002522
:1017E000732564257325642564256425640D0A002A
:1017F000596F7520776F6E207468652067616D651D
:1018000021210D0A00207475726E00796F752064B5
:10181000696420697420696E20002573256425732E
:101820000D0A00207475726E7300707265737320F8
:10183000726573657420746F2073746172742061B3
:101840006761696E0D0A0077696E6E696E67206365
:101850006F646520776173203A2000796F75206C82
:101860006F73652070726573732072657365742081
:10187000746F2074727920616761696E0D0A0025AA
:10188000642025642025642025640D0A00616D6FA5
:101890007574206F6620636F727265637420706C5C
:1018A000616365733A2000616D6F7574206F662007
:1018B00077726F6E6720706C6163656420636F720E
:1018C00072656374206E756D626572733A20000DE7
:0418D0000A0D0A00F3
:00000001FF
