:100000000C9434000C9451000C9451000C94650431
:100010000C9451000C9451000C9451000C9451001C
:100020000C9451000C94B5000C9451000C945300A6
:100030000C9451000C9451000C9457020C945100F4
:100040000C9451000C9451000C94D8070C94AE07FA
:100050000C94F8070C9451000C9451000C9451002E
:100060000C9451000C94510011241FBECFEFD8E026
:10007000DEBFCDBF12E0A0E0B1E0EEE6FAE102C0E3
:1000800005900D92A03FB107D9F724E0A0EFB2E0B0
:1000900001C01D92A033B207E1F70E94C9010C9480
:1000A000350D0C9400001F920F920FB60F92112481
:1000B0002F933F934F935F936F938F939F93EF9300
:1000C000FF9380E090E041E050E0FC01EE0FFF1F65
:1000D000EA50FD4F2081318121303105B1F02230CD
:1000E000310511F1232B71F5FC01EC5FFE4F2081EE
:1000F00065B1FA0102C0EE0FFF1F2A95E2F79F01DA
:1001000020953095262325B91DC0FC01EC5FFE4FDC
:10011000208165B1FA0102C0EE0FFF1F2A95E2F7B8
:100120009F01262B25B90EC0FC01EC5FFE4F2081FC
:1001300065B1FA0102C0EE0FFF1F2A95E2F79F0199
:10014000262725B901968430910509F0BECFFF918D
:10015000EF919F918F916F915F914F913F912F916F
:100160000F900FBE0F901F9018951F920F920FB611
:100170000F921124CF92DF92EF92FF922F933F9331
:100180004F935F936F937F938F939F93AF93BF939F
:10019000EF93FF93C090F002D090F102E090F20252
:1001A000F090F30220E030E040EF51E4C701B601E7
:1001B0000E94EA088823BCF48091F4029091F50231
:1001C000019789F420E030E040E85FE3C701B60121
:1001D0000E947E086093F0027093F1028093F20215
:1001E0009093F30213C08091F4029091F50201976D
:1001F00069F41D9A1092F0021092F1021092F2022C
:100200001092F302C12CD12C760112C0C090F002E2
:10021000D090F102E090F202F090F30220E030E0A2
:1002200040EC5FE3C701B6010E94EA088823BCF4F2
:100230008091F4029091F502029789F420E030E079
:1002400040E45FE3C701B6010E947E086093F002BC
:100250007093F1028093F2029093F3020FC08091A9
:10026000F4029091F502029749F41D9A1092F0025F
:100270001092F1021092F2021092F302FF91EF91AC
:10028000BF91AF919F918F917F916F915F914F91AE
:100290003F912F91FF90EF90DF90CF900F900FBE86
:1002A0000F901F9018951092C5031092C4031092DE
:1002B000F5021092F40284B18F6284B9E1E8F0E0B3
:1002C000808188608083EFE6F0E0808182608083B7
:1002D000E0E7F0E08081816080830895E1E8F0E06C
:1002E000908194609083282F30E0322F2227330FA3
:1002F000032E000C440B550B60E074E284EF90E099
:100300000E94780921503109309389002093880098
:100310000895E1EBF0E080818B7F80832D9810922F
:10032000F5021092F40208959C01E1EBF0E0908157
:10033000976090833093F5022093F402089520E0B3
:1003400030E061E070E0F901EC5FFE4F808145B183
:10035000FB0102C0EE0FFF1F8A95E2F7CF018095E7
:100360009095842385B92F5F3F4F2430310559F78D
:100370001092C5031092C4030895E1E8F0E0808173
:100380008B7F808310928900109288000E949F01C9
:1003900008950E94830287E690E00E9402080E946E
:1003A0005301789488E091E00E9465088CE090E029
:1003B00090936703809366031092930310929203C5
:1003C00010927103109270032FEF81EE94E0215090
:1003D00080409040E1F700C0000083E291E00E947D
:1003E00065080F2EFDE5EF2EF1E0FF2EF02D05E064
:1003F00012E0CAE7D3E0CC2EDD2E809192039091DB
:100400009303892BD1F32FEF81EE94E021508040AC
:100410009040E1F700C000000E94740886E491E07B
:100420000E94650880916603909167039F938F9364
:10043000FF92EF921F930F93DF93CF930E940A0ACC
:100440008C2D9D2D0E9465089FEF21EE84E0915038
:1004500020408040E1F700C000008BE691E00E9460
:10046000650810927103109270038DB79EB70896BD
:100470000FB6F8949EBF0FBE8DBF86E294E00E9437
:100480003F088091700390917103892B31F486E2CB
:1004900094E00E94EF03892B81F380917003909187
:1004A0007103892B09F0A9CF0E949B07A6CF1F9249
:1004B0000F920FB60F9211248F939F938091000398
:1004C00090910103883C910550F480910003909134
:1004D0000103019690930103809300030DC01092D5
:1004E0000103109200038091FE029091FF02019699
:1004F0009093FF028093FE029F918F910F900FBE09
:100500000F901F901895EEE6F0E080818260808366
:1005100084B5826084BD89EF87BD85B5836085BD64
:10052000EBE6F0E0808180688083E8E6F0E080819F
:1005300081608083209A279808950F931F93CF930B
:10054000DF93EC018091FE029091FF020E94FF096F
:100550000E94FA0906E010E0B8010E9464090196C1
:10056000998388830E94FA09B8010E946409019660
:100570009B838A830E94FA09B8010E94640901964C
:100580009D838C830E94FA09B8010E946409019638
:100590009F838E83DF91CF911F910F910895AF922A
:1005A000BF92CF92DF92EF92FF920F931F93CF9360
:1005B000DF93EEE8F3E011821082138212828091C1
:1005C000680390916903A0917203B09173038A1735
:1005D0009B0731F421E030E030938F0320938E03AA
:1005E00020916A0330916B03E0917403F0917503DD
:1005F0002E173F0741F4CEE8D3E0488159814F5F81
:100600005F4F59834883A0906C03B0906D03609155
:10061000760370917703A616B70649F40EE813E047
:10062000E801488159814F5F5F4F598348830091AA
:100630006E0310916F034091780350917903041772
:10064000150779F40F2EFEE8CF2EF3E0DF2EF02D04
:10065000E601E880F980DFEFED1AFD0AE601F98294
:10066000E882A217B30709F08CC0A1E0B0E0B09314
:100670009103A093900313C0A1E0B0E0B093910365
:10068000A09390030CC00F2EFEE8EF2EF3E0FF2E98
:10069000F02DE701AA81BB811196BB83AA838E1737
:1006A0009F0709F072C0AEE8B3E01296ED91FC919D
:1006B000139731961396FC93EE93129717C0AEE8FA
:1006C000B3E01296ED91FC91139731961396FC933B
:1006D000EE9312970BC0AEE8B3E01296ED91FC9149
:1006E000139731961396FC93EE93129786179707FC
:1006F00009F04FC0EEE8F3E0628173816F5F7F4FD6
:100700007383628311C0EEE8F3E0628173816F5FEF
:100710007F4F7383628308C0EEE8F3E062817381E8
:100720006F5F7F4F7383628384179507B1F5EEE89F
:10073000F3E0828193810196938382830FC0EEE878
:10074000F3E08281938101969383828307C0EEE870
:10075000F3E082819381019693838283EEE8F3E054
:100760002081318182819381820F931F059764F1EB
:1007700084E090E0821B930B90939103809390030D
:1007800023C0AA15BB0569F477CFEA15FB0571F400
:1007900096CF2617370779F4B6CF2417350781F49B
:1007A000CECFA017B10709F07ACF6DCFE017F107D0
:1007B00009F09CCF90CF6017710709F0B5CFACCF8F
:1007C000A416B50659F6C3CFDF91CF911F910F91B3
:1007D000FF90EF90DF90CF90BF90AF900895CF92B1
:1007E000DF92EF92FF920F931F93CF93DF93FC0161
:1007F00080819FEC980F963040F4C82ED12C20E3D6
:10080000C21AD10881E090E004C0C12CD12C80E054
:1008100090E021813FEC320F363030F4E22EF12CA3
:1008200020E3E21AF10804C0E12CF12C80E090E012
:1008300002812FEC200F263020F410E00053110924
:1008400004C000E010E080E090E0C3812FEC2C0FAA
:10085000263028F4D0E0E097009749F402C0C0E0C9
:10086000D0E088E791E00E94650880E090E0E2E750
:10087000F3E0D182C082F382E28215830483D783BE
:10088000C683DF91CF911F910F91FF90EF90DF9082
:10089000CF900895E6ECF3E0A4E9B3E086E294E0BB
:1008A000118210821382128215821482178216829C
:1008B00011961C921E9213961C921E9212973896B5
:1008C0001496E817F90761F708951F920F920FB673
:1008D0000F9211242F933F934F935F936F937F93C6
:1008E0008F939F93AF93BF93CF93DF93EF93FF9338
:1008F0001F993CC08091920390919303892B31F012
:1009000081E090E090937103809370030E944A0409
:100910000E94BD010E94890188E693E00E949D0229
:1009200089E991E00E946508C8E6D3E08881805D8E
:100930000E942A088A81805D0E942A088C81805D3D
:100940000E942A088E81805D0E942A088DEE92E026
:100950000E9465088CE090E09093670380936603A3
:1009600081E090E09093930380939203FF91EF9145
:10097000DF91CF91BF91AF919F918F917F916F91B7
:100980005F914F913F912F910F900FBE0F901F904D
:1009900018952F923F924F925F926F927F928F9213
:1009A0009F92AF92BF92CF92DF92EF92FF920F93FE
:1009B0001F93CF93DF93CDB7DEB76E970FB6F89442
:1009C000DEBF0FBECDBF87EA91E00E9465082FEF22
:1009D00031EE84E0215030408040E1F700C000005B
:1009E00020916603309167038CE090E0821B930BAB
:1009F000181619060CF08FC006EC13E00F2EF4E960
:100A0000EF2EF3E0FF2EF02DA12CB12C0F2EF0EDE8
:100A10006F2EF1E07F2EF02D0F2EF0EE4F2EF1E035
:100A20005F2EF02D0F2EF6EE2F2EF1E03F2EF02D43
:100A3000FE0131966F010F2EFCE08F2E912CF02DD0
:100A4000FFEFAF1ABF0AF80187818F9386818F93DA
:100A500085818F9384818F9383818F9382818F93FC
:100A600081818F9380818F937F926F92BF92AF929B
:100A70005F924F923F922F92DF92CF920E940A0A8A
:100A8000C6010E946508FFEF21EE34E0F1502040DE
:100A90003040E1F700C00000F6012EE111922A95E6
:100AA000E9F7F70183818F9382818F9325EF31E0FE
:100AB0003F932F9381818F9380818F93EBEFF1E0B0
:100AC000FF93EF9381E092E09F938F93DF92CF9219
:100AD0000E940A0AC6010E946508FFEF21EE34E079
:100AE000F15020403040E1F700C0000080916603E3
:100AF00090916703085F1F4FE4E0EE0EF11C940134
:100B0000281B390B0FB6F894DEBF0FBECDBFA2165F
:100B1000B3060CF495CFFFEF21EE34E0F150204006
:100B20003040E1F700C000006E960FB6F894DEBFCB
:100B30000FBECDBFDF91CF911F910F91FF90EF902E
:100B4000DF90CF90BF90AF909F908F907F906F90ED
:100B50005F904F903F902F9008950F931F93CF93E6
:100B6000DF93CDB7DEB7A8970FB6F894DEBF0FBE00
:100B7000CDBF20916603309167038BE090E0DC01EC
:100B8000A21BB30BAA0FBB1FAA0FBB1FAA0FBB1F31
:100B9000AA53BC4F28E0E2E7F3E001900D922A95BA
:100BA000E1F74091660350916703AEE8B3E02D9101
:100BB0003C911197FC01E41BF50BEE0FFF1FEE0FAC
:100BC000FF1FEC56FC4F3183208340916603509108
:100BD0006703FC01E41BF50BEE0FFF1FEE0FFF1F79
:100BE000EC56FC4F12968D919C91139793838283C0
:100BF0002430310509F07AC081E090E00E94940130
:100C00008CE092E00E9465082FEF81EE94E0215085
:100C100080409040E1F700C000000E94C90480912C
:100C20006603909167030B9711F52091660330914D
:100C3000670381E292E09F938F938CE090E0821BA8
:100C4000930B9F938F9387E292E09F938F9386E31A
:100C500092E09F938F93CE0101969F938F930E9472
:100C60000A0A0FB6F894DEBF0FBECDBF21C0209197
:100C70006603309167038FE392E09F938F938CE03C
:100C800090E0821B930B9F938F9387E292E09F9358
:100C90008F9386E392E09F938F93CE0101969F936B
:100CA0008F930E940A0A0FB6F894DEBF0FBECDBF25
:100CB000CE0101960E9465089FEFE2E5F7E09150B2
:100CC000E040F040E1F700C0000086E492E00E94BE
:100CD00065082FEF82E597E0215080409040E1F7D2
:100CE00000C000001092930310929203E2E7F3E039
:100CF0001182108213821282158214821782168248
:100D0000EEE8F3E011821082138212828091660372
:100D100090916703892B09F042C082E090E00E9425
:100D200094018DEE92E00E9465080E94C904EFEFE5
:100D3000F1EE24E0E150F0402040E1F700C0000077
:100D400083E692E00E94650808E613E0F8018081DE
:100D5000805D0E942A08F8018281805D0E942A0835
:100D6000F8018481805D0E942A08F8018681805DF7
:100D70000E942A088DEE92E00E946508FFEF21EEA6
:100D800084E0F15020408040E1F700C0000087E798
:100D900092E00E9465081092930310929203A89625
:100DA0000FB6F894DEBF0FBECDBFDF91CF911F917C
:100DB0000F9108950F931F93CF93DF93CDB7DEB7B5
:100DC0002A970FB6F894DEBF0FBECDBFE6EFF2E074
:100DD0001182108213821282158214821782168267
:100DE00080918E0390918F0364E070E0681B790B13
:100DF0001816190684F420E030E041E050E0F901D3
:100E0000EE0FFF1FEA50FD4F518340832F5F3F4F8E
:100E100082179307A1F716161706E4F420919003A2
:100E200030919103280F391F821793079CF4843067
:100E3000910584F442E050E0FC01EE0FFF1FEA5000
:100E4000FD4F518340830196821793071CF4843031
:100E5000910591F7E6EFF2E0668177814481558153
:100E600022813381808191817F936F935F934F9330
:100E70003F932F939F938F938BE992E09F938F9350
:100E80008E010F5F1F4F1F930F930E940A0AC80124
:100E90000E9465080FB6F894DEBF0FBECDBF2A963C
:100EA0000FB6F894DEBF0FBECDBFDF91CF911F917B
:100EB0000F910895CF93DF930E949F010E94DA065D
:100EC00085E00E946E0189EA92E00E946508CEE802
:100ED000D3E08881805D0E942A088DEE92E00E9416
:100EE00065082FEF81EE94E0215080409040E1F7BB
:100EF00000C0000083EC92E00E9465088A81805D5A
:100F00000E942A088DEE92E00E9465082FEF81EE84
:100F100094E0215080409040E1F700C000008091B3
:100F2000660390916703019790936703809366032C
:100F3000DF91CF91089586E294E00E9465088DEEDE
:100F400092E00E9465080E94CF020E945A070E9408
:100F5000AD058BEE92E00E94650808951F920F92F6
:100F60000FB60F9211248F939F93EF93FF9390915D
:100F7000030380910203981769F0E0910203EF5F89
:100F8000EF73E0930203F0E0EC5FFC4F808180930D
:100F9000C60005C0E1ECF0E080818F7D8083FF9189
:100FA000EF919F918F910F900FBE0F901F9018950A
:100FB0001F920F920FB60F9211248F939F93EF936E
:100FC000FF938091C600E0914503EF5FEF71E093DE
:100FD000450390914403F0E0EA5BFC4F8083FF916E
:100FE000EF919F918F910F900FBE0F901F901895CA
:100FF0001F920F920FB60F9211240F900FBE0F90F9
:101000001F9018959093C5008093C40088ED80933D
:10101000C1001092440310924503109202031092F3
:101020000303089506C08091700390917103892B8A
:1010300031F490914503809144039817A1F3E09116
:101040004403EF5FEF71E0934403F0E0EA5BFC4F91
:1010500080810895209103032F5F2F7390910203E5
:101060002917E1F3E22FF0E0EC5FFC4F808320933F
:101070000303E1ECF0E08081806280830895EF92C9
:10108000FF920F931F93CF937C01C0E007C0809124
:10109000700390917103892B51F4CF5F87010C0F7E
:1010A000111D0E941208F80180838A3081F78AE0BE
:1010B000F8018083CF5FF701EC0FF11D1082CF9113
:1010C0001F910F91FF90EF900895CF93DF93EC0164
:1010D0008881882331F021960E942A088991811104
:1010E000FBCFDF91CF9108951092440310924503F6
:1010F000109202031092030308955058BB27AA27A9
:101100000E9495080C942A090E941C0938F00E943C
:10111000230920F039F49F3F19F426F40C9419099F
:101120000EF4E095E7FB0C941309E92F0E943B09AC
:1011300058F3BA17620773078407950720F079F40C
:10114000A6F50C945D090EF4E0950B2EBA2FA02D98
:101150000B01B90190010C01CA01A0011124FF2764
:10116000591B99F0593F50F4503E68F11A16F0405F
:10117000A22F232F342F4427585FF3CF469537955E
:101180002795A795F0405395C9F77EF41F16BA0B23
:10119000620B730B840BBAF09150A1F0FF0FBB1FD1
:1011A000661F771F881FC2F70EC0BA0F621F731F1A
:1011B000841F48F4879577956795B795F7959E3F77
:1011C00008F0B0CF9395880F08F09927EE0F979508
:1011D000879508950E94EF0808F481E00895990F1B
:1011E0000008550FAA0BE0E8FEEF16161706E807F1
:1011F000F907C0F012161306E407F50798F0621B12
:10120000730B840B950B39F40A2661F0232B242BE6
:10121000252B21F408950A2609F4A140A6958FEF05
:10122000811D811D089597F99F6780E870E060E057
:1012300008959FEF80EC089500240A94161617066F
:1012400018060906089500240A94121613061406B7
:1012500005060895092E0394000C11F4882352F01A
:10126000BB0F40F4BF2B11F460FF04C06F5F7F4FD2
:101270008F4F9F4F089557FD9058440F551F59F0B9
:101280005F3F71F04795880F97FB991F61F09F3F73
:1012900079F087950895121613061406551FF2CF9C
:1012A0004695F1DF08C0161617061806991FF1CFEC
:1012B00086957105610508940895E894BB27662713
:1012C0007727CB0197F9089597FB072E16F4009422
:1012D00007D077FD09D00E949A0907FC05D03EF49B
:1012E000909581959F4F0895709561957F4F0895D2
:1012F000A1E21A2EAA1BBB1BFD010DC0AA1FBB1F1A
:10130000EE1FFF1FA217B307E407F50720F0A21B8B
:10131000B30BE40BF50B661F771F881F991F1A94F8
:1013200069F760957095809590959B01AC01BD0122
:10133000CF010895AA1BBB1B51E107C0AA1FBB1F09
:10134000A617B70710F0A61BB70B881F991F5A9551
:10135000A9F780959095BC01CD0108958F929F9239
:10136000AF92BF92CF92DF92EF92FF92CF93DF9333
:10137000EC01688179818A819B8161157105810504
:10138000910521F464E279ED8BE597E02DE133EFEF
:1013900041E050E00E94BD0C49015A019B01AC01A3
:1013A000A7EAB1E40E94DC0C6B017C01ACEEB4EF67
:1013B000A50194010E94EA0CDC01CB018C0D9D1D5E
:1013C000AE1DBF1DB7FF03C00197A109B0488883B8
:1013D0009983AA83BB839F77DF91CF91FF90EF9092
:1013E000DF90CF90BF90AF909F908F9008950E9414
:1013F000AE09089580E091E00E94AE090895A0E052
:10140000B0E08093000190930101A0930201B0939A
:1014100003010895AEE0B0E0E0E1FAE00C94FD0CC9
:101420000D891E8986E08C831A8309838FEF9FE7DD
:101430009E838D83AE01475E5F4F6F89788DCE01AD
:1014400001960E942C0AEF81F885E00FF11F1082AF
:101450002E96E4E00C94190DABE0B0E0E2E3FAE084
:101460000C94EF0C6C017B018A01FC01178216823F
:10147000838181FFCCC1CE0101963C01F6019381AD
:10148000F70193FD859193FF81917F01882309F4F2
:10149000BAC1853239F493FD859193FF81917F0123
:1014A000853229F4B60190E00E94230CE7CF912CFD
:1014B000212C312CFFE1F315D8F08B3279F038F480
:1014C000803279F08332A1F4232D20611DC08D324A
:1014D00061F0803369F4232D216016C0832D826072
:1014E000382EE32DE4603E2E2AC0F32DF8601DC097
:1014F00037FC2DC020ED280F2A3040F08E32B9F491
:1015000036FC81C1232D2064322E19C036FE06C060
:101510008AE0989E200D1124922E11C0EAE02E9EA2
:10152000200D1124222EF32DF0623F2E08C08C36A0
:1015300021F4832D8068382E02C0883641F4F701EB
:1015400093FD859193FF81917F018111B3CF982FF6
:101550009F7D9554933028F40C5F1F4F9FE3998330
:101560000DC0833631F0833771F0833509F059C0EF
:1015700021C0F801808189830E5F1F4F88248394E6
:10158000912C530113C02801F2E04F0E511CF801B9
:10159000A080B18036FE03C0692D70E002C06FEFFD
:1015A0007FEFC5010E94180C4C018201F32DFF77DB
:1015B0003F2E16C0280122E0420E511CF801A080E7
:1015C000B18036FE03C0692D70E002C06FEF7FEF7F
:1015D000C5010E940D0C4C01F32DF0683F2E8201D5
:1015E00033FC1BC0822D90E088169906B0F4B6013A
:1015F00080E290E00E94230C2A94F4CFF50137FC9E
:10160000859137FE81915F01B60190E00E94230C25
:1016100021102A9421E0821A91088114910471F713
:10162000E8C0843611F0893641F5F80137FE07C06D
:1016300060817181828193810C5F1F4F08C060813E
:101640007181072E000C880B990B0E5F1F4FF32D35
:10165000FF763F2E97FF09C0909580957095619514
:101660007F4F8F4F9F4FF0683F2E2AE030E0A3015D
:101670000E945F0C882E861845C0853731F4232DD3
:101680002F7EB22E2AE030E025C0932D997FB92E0F
:101690008F36C1F018F4883579F0B5C0803719F06D
:1016A000883721F0B0C0E92FE061BE2EB4FE0DC036
:1016B000FB2DF460BF2E09C034FE0AC0292F26601E
:1016C000B22E06C028E030E005C020E130E002C0C4
:1016D00020E132E0F801B7FE07C0608171818281AC
:1016E00093810C5F1F4F06C06081718180E090E0A4
:1016F0000E5F1F4FA3010E945F0C882E8618FB2DE2
:10170000FF773F2E36FE0DC0232D2E7FA22E89148B
:1017100058F434FE0BC032FC09C0832D8E7EA82EF7
:1017200005C0B82CA32C03C0B82C01C0B92CA4FE52
:101730000FC0FE01E80DF11D8081803321F49A2D48
:10174000997EA92E09C0A2FE06C0B394B39404C02A
:101750008A2D867809F0B394A3FC11C0A0FE06C0C0
:10176000B21488F4280C922C9B180EC0B21460F4AA
:10177000B60180E290E00E94230CB394F7CFB2143C
:1017800018F42B1802C0982C212CA4FE10C0B6010E
:1017900080E390E00E94230CA2FE17C0A1FC03C0CE
:1017A00088E790E002C088E590E0B6010CC08A2D81
:1017B000867859F0A1FE02C08BE201C080E2A7FC4E
:1017C0008DE2B60190E00E94230C891438F4B60132
:1017D00080E390E00E94230C9A94F7CF8A94F3015F
:1017E000E80DF11D8081B60190E00E94230C81106C
:1017F000F5CF222009F442CEB60180E290E00E94AB
:10180000230C2A94F6CFF6018681978102C08FEFD0
:101810009FEF2B96E2E10C940B0DFC0105906150BB
:1018200070400110D8F7809590958E0F9F1F0895F6
:10183000FC016150704001900110D8F7809590959F
:101840008E0F9F1F08950F931F93CF93DF93FB017C
:10185000238121FD03C08FEF9FEF2CC022FF16C014
:1018600046815781248135814217530744F4A08172
:10187000B1819D012F5F3F4F318320838C9326815F
:1018800037812F5F3F4F3783268314C08B01EC01D4
:10189000FB010084F185E02D0995892BE1F6D80143
:1018A00016968D919C911797019617969C938E93FF
:1018B0001697CE01DF91CF911F910F910895FA01F4
:1018C000AA27283051F1203181F1E8946F936E7F7F
:1018D0006E5F7F4F8F4F9F4FAF4FB1E03ED0B4E070
:1018E0003CD0670F781F891F9A1FA11D680F791FB1
:1018F0008A1F911DA11D6A0F711D811D911DA11DC2
:1019000020D009F468943F912AE0269F11243019D1
:10191000305D3193DEF6CF010895462F4770405D6C
:101920004193B3E00FD0C9F7F6CF462F4F70405D1B
:101930004A3318F0495D31FD4052419302D0A9F776
:10194000EACFB4E0A6959795879577956795BA9570
:10195000C9F700976105710508959B01AC010A2E36
:1019600006945795479537952795BA95C9F7620F0D
:10197000731F841F951FA01D0895052E97FB1EF44D
:1019800000940E94D40C57FD07D00E94780907FCF0
:1019900003D04EF40C94D40C50954095309521957D
:1019A0003F4F4F4F5F4F089590958095709561958B
:1019B0007F4F8F4F9F4F08950E94260DA59F900D3A
:1019C000B49F900DA49F800D911D11240895B7FF21
:1019D0000C94DC0C0E94DC0C821B930B08952F925C
:1019E0003F924F925F926F927F928F929F92AF92AF
:1019F000BF92CF92DF92EF92FF920F931F93CF93FC
:101A0000DF93CDB7DEB7CA1BDB0B0FB6F894DEBF92
:101A10000FBECDBF09942A88398848885F846E84B8
:101A20007D848C849B84AA84B984C884DF80EE8002
:101A3000FD800C811B81AA81B981CE0FD11D0FB60B
:101A4000F894DEBF0FBECDBFED010895A29FB00197
:101A5000B39FC001A39F700D811D1124911DB29FE2
:0E1A6000700D811D1124911D0895F894FFCF83
:101A6E00010000000001020344454255473A206937
:101A7E006E697469616C6973696E6720646F6E65F7
:101A8E000D0A00507265737320726573657420744D
:101A9E006F207374617274207468652067616D6560
:101AAE002E2E2E0D0A00402D2D2D2D2D2D2D2D2DB2
:101ABE002D2D2D2D2D2D2D2D2D400D0A00747572D1
:101ACE006E73206C656674203A2000696E707574B2
:101ADE0020636F64653A20006F6E6C7920757365B4
:101AEE0020746865206E756D626572732031203CBE
:101AFE002D3E203620200D0A000D0A0D0A444542C7
:101B0E005547203A3A20004350203D20636F7272B1
:101B1E0065637420706C616365642C205750203DA2
:101B2E002077726F6E6720706C616365640D0A00BA
:101B3E003A2009796F7520706C617965643A2000DE
:101B4E007475726E200025732564257325642564D3
:101B5E0025642564002057503A20002043503A2037
:101B6E000025732564257325640D0A00596F7520B1
:101B7E00776F6E207468652067616D6521210D0A8F
:101B8E0000207475726E00796F7520646964206927
:101B9E007420696E20002573256425730D0A0020BC
:101BAE007475726E730070726573732072657365EF
:101BBE007420746F20737461727420616761696E32
:101BCE000D0A0077696E6E696E6720636F6465201B
:101BDE00776173203A2000796F75206C6F736520E2
:101BEE00707265737320726573657420746F2074E0
:101BFE00727920616761696E0D0A00256420256483
:101C0E002025642025640D0A00616D6F7574206FA8
:101C1E006620636F727265637420706C61636573A6
:101C2E003A2000616D6F7574206F662077726F6E4B
:101C3E006720706C6163656420636F727265637494
:101C4E00206E756D626572733A20000D0A0D0A00E2
:00000001FF
