S01800004D6567614D696E6479436C65616E75702E73726563C9
S11300000C9434000C9451000C9451000C94100482
S11300100C9451000C9451000C9451000C94510018
S11300200C9451000C94B5000C9451000C945300A2
S11300300C9451000C9451000C9402020C94510045
S11300400C9451000C9451000C944B070C94210710
S11300500C9451000C9451000C9451000C945100D8
S11300600C9451000C94510011241FBECFEFD8E022
S1130070DEBFCDBF12E0A0E0B1E0E2E7F7E102C0ED
S113008005900D92A23EB107D9F724E0A2EEB2E0AA
S113009001C01D92A032B207E1F70E947D010C94C9
S11300A0B70B0C9400001F920F920FB60F921124FD
S11300B02F933F934F935F936F938F939F93EF93FC
S11300C0FF9380E090E041E050E0FC01EE0FFF1F61
S11300D0EA51FD4F2081318121303105B1F02230C8
S11300E0310511F1232B71F5FC01EC5FFE4F2081EA
S11300F065B1FA0102C0EE0FFF1F2A95E2F79F01D6
S113010020953095262325B91DC0FC01EC5FFE4FD8
S1130110208165B1FA0102C0EE0FFF1F2A95E2F7B4
S11301209F01262B25B90EC0FC01EC5FFE4F2081F8
S113013065B1FA0102C0EE0FFF1F2A95E2F79F0195
S1130140262725B901968430910509F0BECFFF9189
S1130150EF919F918F916F915F914F913F912F916B
S11301600F900FBE0F901F9018951F920F920FB60D
S11301700F9211242F933F938F939F938091E202C8
S11301809091E3028E3191056CF42091E402309158
S1130190E5022130310531F401969093E302809316
S11301A0E2020EC08091E4029091E502019741F4CD
S11301B01D9A1092E3021092E20280E090E007C0E0
S11301C08091E2029091E3028639910574F42091C2
S11301D0E4023091E5022230310539F48C599F4F05
S11301E09093E3028093E2020BC08091E402909129
S11301F0E502029729F41D9A1092E3021092E2029A
S11302009F918F913F912F910F900FBE0F901F9050
S113021018951092B5031092B4031092E50210924F
S1130220E40284B18F6284B9E1E8F0E080818860FF
S11302308083EFE6F0E0808182608083E0E7F0E095
S11302408081816080830895E1E8F0E0908194608A
S11302509083282F30E0322F2227330F032E000CF7
S1130260440B550B60E074E284EF90E00E94FA07BF
S11302702150310930938900209388000895E1EBDF
S1130280F0E080818B7F80832D981092E50210929C
S1130290E40208959C01E1EBF0E090819760908383
S11302A03093E5022093E4020895E1E8F0E08081D0
S11302B08B7F80831092890010928800089520E03B
S11302C030E061E070E0F901EC5FFE4F808145B100
S11302D0FB0102C0EE0FFF1F8A95E2F7CF01809564
S11302E09095842385B92F5F3F4F2430310559F70A
S11302F01092B5031092B40308950E942E0287E66B
S113030090E00E946B070E940901789488E091E0D4
S11303100E94CE078CE090E090935703809356039D
S1130320109283031092820310926103109260036F
S113033083E291E00E94CE070F2EFDE5EF2EF1E05F
S1130340FF2EF02D0BE611E0CAE6D3E0CC2EDD2E15
S11303508091820390918303892BD1F32FEF81EE57
S113036094E0215080409040E1F700C000000E94DA
S1130370DD0786E491E00E94CE07809156039091B8
S113038057039F938F93FF92EF921F930F93DF93E3
S1130390CF930E948C088C2D9D2D0E94CE079FEF39
S11303A021EE84E0915020408040E1F700C000003D
S11303B082E791E00E94CE071092610310926003DD
S11303C08DB79EB708960FB6F8949EBF0FBE8DBF2B
S11303D086E194E00E94A8078091600390916103F4
S11303E0892B31F486E194E00E949A03892B81F3EE
S11303F08091600390916103892B09F0A9CF0E9439
S11304000E07A6CF1F920F920FB60F9211248F934F
S11304109F938091F0029091F102883C910550F4F1
S11304208091F0029091F10201969093F1028093F1
S1130430F0020DC01092F1021092F0028091EE02CF
S11304409091EF0201969093EF028093EE029F91B8
S11304508F910F900FBE0F901F901895EEE6F0E06D
S113046080818260808384B5826084BD89EF87BD8A
S113047085B5836085BDEBE6F0E08081806880838C
S1130480E8E6F0E0808181608083209A27980895CF
S11304900F931F93CF93DF93EC018091EE02909121
S11304A0EF020E9481080E947C0806E010E0B80177
S11304B00E94E6070196998388830E947C08B8010C
S11304C00E94E60701969B838A830E947C08B801F8
S11304D00E94E60701969D838C830E947C08B801E4
S11304E00E94E60701969F838E83DF91CF911F912F
S11304F00F910895AF92BF92CF92DF92EF92FF9245
S11305000F931F93CF93DF93EEE7F3E011821082F2
S1130510138212828091580390915903A09162032F
S1130520B09163038A179B0731F421E030E03093E4
S11305307F0320937E0320915A0330915B03E09163
S11305406403F09165032E173F0741F4CEE7D3E02F
S1130550488159814F5F5F4F59834883A0905C0362
S1130560B0905D036091660370916703A616B706A9
S113057049F40EE713E0E801488159814F5F5F4F6A
S11305805983488300915E0310915F03409168038F
S1130590509169030417150779F40F2EFEE7CF2E47
S11305A0F3E0DF2EF02DE601E880F980DFEFED1AAD
S11305B0FD0AE601F982E882A217B30709F08CC0AC
S11305C0A1E0B0E0B0938103A093800313C0A1E045
S11305D0B0E0B0938103A09380030CC00F2EFEE71C
S11305E0EF2EF3E0FF2EF02DE701AA81BB811196D7
S11305F0BB83AA838E179F0709F072C0AEE7B3E0EE
S11306001296ED91FC91139731961396FC93EE9309
S1130610129717C0AEE7B3E01296ED91FC911397D1
S113062031961396FC93EE9312970BC0AEE7B3E0AA
S11306301296ED91FC91139731961396FC93EE93D9
S113064012978617970709F04FC0EEE7F3E062812F
S113065073816F5F7F4F7383628311C0EEE7F3E0B2
S1130660628173816F5F7F4F7383628308C0EEE79B
S1130670F3E0628173816F5F7F4F738362838417BA
S11306809507B1F5EEE7F3E08281938101969383B8
S113069082830FC0EEE7F3E0828193810196938316
S11306A0828307C0EEE7F3E082819381019693830E
S11306B08283EEE7F3E02081318182819381820F8E
S11306C0931F059764F184E090E0821B930B909351
S11306D081038093800323C0AA15BB0569F477CFF7
S11306E0EA15FB0571F496CF2617370779F4B6CFD0
S11306F02417350781F4CECFA017B10709F07ACFBC
S11307006DCFE017F10709F09CCF90CF6017710708
S113071009F0B5CFACCFA416B50659F6C3CFDF9117
S1130720CF911F910F91FF90EF90DF90CF90BF90EA
S1130730AF900895CF92DF92EF92FF920F931F93A1
S1130740CF93DF93FC0180819FEC980F963040F4A7
S1130750C82ED12C20E3C21AD10881E090E004C055
S1130760C12CD12C80E090E021813FEC320F363057
S113077030F4E22EF12C20E3E21AF10804C0E12C5B
S1130780F12C80E090E002812FEC200F263020F441
S113079010E00053110904C000E010E080E090E094
S11307A0C3812FEC2C0F263028F4D0E0E09700977B
S11307B049F402C0C0E0D0E08FE791E00E94CE0788
S11307C080E090E0E2E6F3E0D182C082F382E2824C
S11307D015830483D783C683DF91CF911F910F9133
S11307E0FF90EF90DF90CF900895E6EBF3E0A4E85C
S11307F0B3E086E194E011821082138212821582A2
S113080014821782168211961C921E9213961C92C1
S11308101E92129738961496E817F90761F708950F
S11308201F920F920FB60F9211242F933F934F9361
S11308305F936F937F938F939F93AF93BF93CF9364
S1130840DF93EF93FF931F993CC0809182039091B3
S11308508303892B31F081E090E0909361038093CE
S113086060030E94F5030E9455010E943F0188E540
S113087093E00E94480280EA91E00E94CE07C8E516
S1130880D3E08881805D0E9493078A81805D0E9405
S113089093078C81805D0E9493078E81805D0E9406
S11308A093078FED92E00E94CE078CE090E0909346
S11308B057038093560381E090E0909383038093E1
S11308C08203FF91EF91DF91CF91BF91AF919F91FF
S11308D08F917F916F915F914F913F912F910F90E5
S11308E00FBE0F901F9018954F925F926F927F9258
S11308F08F929F92AF92BF92CF92DF92EF92FF922C
S11309000F931F93CF93DF93CDB7DEB76E970FB6D8
S1130910F894DEBF0FBECDBF8EEA91E00E94CE07F1
S11309202FEF31EE84E0215030408040E1F700C0E9
S1130930000020915603309157038CE090E0821B15
S1130940930B181619060CF05BC006EB13E0E12CB0
S1130950F12C0F2EF7EDAF2EF1E0BF2EF02D0F2E60
S1130960F7EE6F2EF1E07F2EF02D0F2EFDEE4F2EC1
S1130970F1E05F2EF02DFE0131966F010F2EFCE0A9
S11309808F2E912CF02DFFEFEF1AFF0AF8018781CB
S11309908F9386818F9385818F9384818F938381B5
S11309A08F9382818F9381818F9380818F93BF9264
S11309B0AF92FF92EF927F926F925F924F92DF928B
S11309C0CF920E948C08C6010E94CE07FFEF21EE51
S11309D034E0F15020403040E1F700C00000809145
S11309E0560390915703085F1F4FF401E81BF90B5E
S11309F00FB6F894DEBF0FBECDBFEE16FF061CF295
S1130A003FEF81EE94E0315080409040E1F700C028
S1130A1000006E960FB6F894DEBF0FBECDBFDF9117
S1130A20CF911F910F91FF90EF90DF90CF90BF90E7
S1130A30AF909F908F907F906F905F904F900895AC
S1130A400F931F93CF93DF93CDB7DEB7A8970FB65D
S1130A50F894DEBF0FBECDBF2091560330915703EB
S1130A608BE090E0DC01A21BB30BAA0FBB1FAA0F03
S1130A70BB1FAA0FBB1FAA54BC4F28E0E2E6F3E059
S1130A8001900D922A95E1F7409156035091570336
S1130A90AEE7B3E02D913C911197FC01E41BF50BFB
S1130AA0EE0FFF1FEE0FFF1FEC57FC4F3183208327
S1130AB04091560350915703FC01E41BF50BEE0FD4
S1130AC0FF1FEE0FFF1FEC57FC4F12968D919C9168
S1130AD01397938382832430310509F07AC081E02F
S1130AE090E00E944A018EEF91E00E94CE072FEF22
S1130AF081EE94E0215080409040E1F700C0000076
S1130B000E94740480915603909157030B9711F53A
S1130B10209156033091570383E192E09F938F9382
S1130B208CE090E0821B930B9F938F9389E192E07A
S1130B309F938F9388E292E09F938F93CE010196C7
S1130B409F938F930E948C080FB6F894DEBF0FBE5C
S1130B50CDBF21C0209156033091570381E392E029
S1130B609F938F938CE090E0821B930B9F938F93C2
S1130B7089E192E09F938F9388E292E09F938F9311
S1130B80CE0101969F938F930E948C080FB6F89420
S1130B90DEBF0FBECDBFCE0101960E94CE079FEFF0
S1130BA0E2E5F7E09150E040F040E1F700C00000DA
S1130BB088E392E00E94CE072FEF82E597E0215070
S1130BC080409040E1F700C000001092830310922F
S1130BD08203E2E6F3E0118210821382128215820C
S1130BE0148217821682EEE7F3E0118210821382D8
S1130BF012828091560390915703892B09F042C0C9
S1130C0082E090E00E944A018FED92E00E94CE07BC
S1130C100E947404EFEFF1EE24E0E150F040204034
S1130C20E1F700C0000085E592E00E94CE0708E5E8
S1130C3013E0F8018081805D0E949307F8018281AE
S1130C40805D0E949307F8018481805D0E94930770
S1130C50F8018681805D0E9493078FED92E00E94E7
S1130C60CE07FFEF21EE84E0F15020408040E1F711
S1130C7000C0000089E692E00E94CE071092830330
S1130C8010928203A8960FB6F894DEBF0FBECDBFB4
S1130C90DF91CF911F910F9108950F931F93CF93DD
S1130CA0DF93CDB7DEB72A970FB6F894DEBF0FBE39
S1130CB0CDBFE6EEF2E01182108213821282158219
S1130CC014821782168280917E0390917F0364E0E0
S1130CD070E0681B790B1816190684F420E030E0E4
S1130CE041E050E0F901EE0FFF1FEA51FD4F51833F
S1130CF040832F5F3F4F82179307A1F716161706FD
S1130D00E4F42091800330918103280F391F821766
S1130D1093079CF48430910584F442E050E0FC0194
S1130D20EE0FFF1FEA51FD4F518340830196821756
S1130D3093071CF48430910591F7E6EEF2E06681A6
S1130D4077814481558122813381808191817F9390
S1130D506F935F934F933F932F939F938F938DE85C
S1130D6092E09F938F938E010F5F1F4F1F930F93FA
S1130D700E948C08C8010E94CE070FB6F894DEBF0B
S1130D800FBECDBF2A960FB6F894DEBF0FBECDBFFF
S1130D90DF91CF911F910F910895CF93DF930E941C
S1130DA05F010E944D0685E00E9424018BE992E0D8
S1130DB00E94CE07CEE7D3E08881805D0E9493072E
S1130DC08FED92E00E94CE072FEF81EE94E0215048
S1130DD080409040E1F700C0000085EB92E00E9463
S1130DE0CE078A81805D0E9493078FED92E00E9476
S1130DF0CE072FEF81EE94E0215080409040E1F740
S1130E0000C000008091560390915703019790937E
S1130E10570380935603DF91CF91089586E194E0C0
S1130E200E94CE078FED92E00E94CE070E947A02C4
S1130E300E94CD060E9420058DED92E00E94CE070F
S1130E4008951F920F920FB60F9211248F939F93C0
S1130E50EF93FF939091F3028091F202981769F057
S1130E60E091F202EF5FEF73E093F202F0E0EC50F6
S1130E70FD4F80818093C60005C0E1ECF0E08081E5
S1130E808F7D8083FF91EF919F918F910F900FBE83
S1130E900F901F9018951F920F920FB60F92112466
S1130EA08F939F93EF93FF938091C600E091350356
S1130EB0EF5FEF71E093350390913403F0E0EA5C67
S1130EC0FC4F8083FF91EF919F918F910F900FBE04
S1130ED00F901F9018959093C5008093C40088E9E3
S1130EE08093C10010923403109235031092F202E1
S1130EF01092F302089506C08091600390916103FB
S1130F00892B31F490913503809134039817A1F320
S1130F10E0913403EF5FEF71E0933403F0E0EA5CB7
S1130F20FC4F808108952091F3022F5F2F739091DD
S1130F30F2022917E1F3E22FF0E0EC50FD4F808339
S1130F402093F302E1ECF0E08081806280830895D5
S1130F50EF92FF920F931F93CF937C01C0E007C0E1
S1130F608091600390916103892B51F4CF5F8701D5
S1130F700C0F111D0E947B07F80180838A3081F7D2
S1130F808AE0F8018083CF5FF701EC0FF11D108236
S1130F90CF911F910F91FF90EF900895CF93DF931E
S1130FA0EC018881882331F021960E94930789916E
S1130FB08111FBCFDF91CF910895109234031092E9
S1130FC035031092F2021092F302089597FB072E54
S1130FD016F4009407D077FD09D00E941C0807FC82
S1130FE005D03EF4909581959F4F08957095619535
S1130FF07F4F0895A1E21A2EAA1BBB1BFD010DC051
S1131000AA1FBB1FEE1FFF1FA217B307E407F507B4
S113101020F0A21BB30BE40BF50B661F771F881F90
S1131020991F1A9469F760957095809590959B0126
S1131030AC01BD01CF010895AA1BBB1B51E107C040
S1131040AA1FBB1FA617B70710F0A61BB70B881F54
S1131050991F5A95A9F780959095BC01CD010895E3
S11310608F929F92AF92BF92CF92DF92EF92FF92B4
S1131070CF93DF93EC01688179818A819B8161152B
S113108071058105910521F464E279ED8BE597E022
S11310902DE133EF41E050E00E943F0B49015A013A
S11310A09B01AC01A7EAB1E40E945E0B6B017C01D9
S11310B0ACEEB4EFA50194010E946C0BDC01CB01F2
S11310C08C0D9D1DAE1DBF1DB7FF03C00197A10967
S11310D0B04888839983AA83BB839F77DF91CF919C
S11310E0FF90EF90DF90CF90BF90AF909F908F9044
S11310F008950E943008089580E091E00E9430082D
S11311000895A0E0B0E08093000190930101A093C2
S11311100201B09303010895AEE0B0E0E2E9F8E023
S11311200C947F0B0D891E8986E08C831A830983B6
S11311308FEF9FE79E838D83AE01475E5F4F6F897C
S1131140788DCE0101960E94AE08EF81F885E00FFC
S1131150F11F10822E96E4E00C949B0BABE0B0E000
S1131160E4EBF8E00C94710B6C017B018A01FC0147
S113117017821682838181FFCCC1CE0101963C0186
S1131180F6019381F70193FD859193FF81917F018E
S1131190882309F4BAC1853239F493FD859193FF0C
S11311A081917F01853229F4B60190E00E94A50A5D
S11311B0E7CF912C212C312CFFE1F315D8F08B32A1
S11311C079F038F4803279F08332A1F4232D206150
S11311D01DC08D3261F0803369F4232D216016C067
S11311E0832D8260382EE32DE4603E2E2AC0F32D39
S11311F0F8601DC037FC2DC020ED280F2A3040F0C8
S11312008E32B9F436FC81C1232D2064322E19C0EC
S113121036FE06C08AE0989E200D1124922E11C03D
S1131220EAE02E9E200D1124222EF32DF0623F2E93
S113123008C08C3621F4832D8068382E02C088368D
S113124041F4F70193FD859193FF81917F01811111
S1131250B3CF982F9F7D9554933028F40C5F1F4F84
S11312609FE399830DC0833631F0833771F0833562
S113127009F059C021C0F801808189830E5F1F4F96
S113128088248394912C530113C02801F2E04F0E5B
S1131290511CF801A080B18036FE03C0692D70E0B6
S11312A002C06FEF7FEFC5010E949A0A4C018201D0
S11312B0F32DFF773F2E16C0280122E0420E511C69
S11312C0F801A080B18036FE03C0692D70E002C031
S11312D06FEF7FEFC5010E948F0A4C01F32DF06878
S11312E03F2E820133FC1BC0822D90E088169906A4
S11312F0B0F4B60180E290E00E94A50A2A94F4CFEB
S1131300F50137FC859137FE81915F01B60190E0CC
S11313100E94A50A21102A9421E0821A91088114BE
S1131320910471F7E8C0843611F0893641F5F8016B
S113133037FE07C060817181828193810C5F1F4FEA
S113134008C060817181072E000C880B990B0E5F19
S11313501F4FF32DFF763F2E97FF09C09095809580
S1131360709561957F4F8F4F9F4FF0683F2E2AE015
S113137030E0A3010E94E10A882E861845C0853713
S113138031F4232D2F7EB22E2AE030E025C0932D98
S1131390997FB92E8F36C1F018F4883579F0B5C02D
S11313A0803719F0883721F0B0C0E92FE061BE2EF4
S11313B0B4FE0DC0FB2DF460BF2E09C034FE0AC07C
S11313C0292F2660B22E06C028E030E005C020E1B7
S11313D030E002C020E132E0F801B7FE07C06081CE
S11313E07181828193810C5F1F4F06C0608171817E
S11313F080E090E00E5F1F4FA3010E94E10A882E57
S11314008618FB2DFF773F2E36FE0DC0232D2E7F31
S1131410A22E891458F434FE0BC032FC09C0832D6B
S11314208E7EA82E05C0B82CA32C03C0B82C01C0F6
S1131430B92CA4FE0FC0FE01E80DF11D808180339C
S113144021F49A2D997EA92E09C0A2FE06C0B39458
S1131450B39404C08A2D867809F0B394A3FC11C018
S1131460A0FE06C0B21488F4280C922C9B180EC05F
S1131470B21460F4B60180E290E00E94A50AB3942D
S1131480F7CFB21418F42B1802C0982C212CA4FE08
S113149010C0B60180E390E00E94A50AA2FE17C026
S11314A0A1FC03C088E790E002C088E590E0B601A3
S11314B00CC08A2D867859F0A1FE02C08BE201C0CF
S11314C080E2A7FC8DE2B60190E00E94A50A89148F
S11314D038F4B60180E390E00E94A50A9A94F7CF0D
S11314E08A94F301E80DF11D8081B60190E00E9419
S11314F0A50A8110F5CF222009F442CEB60180E27C
S113150090E00E94A50A2A94F6CFF601868197817D
S113151002C08FEF9FEF2B96E2E10C948D0BFC0140
S11315200590615070400110D8F7809590958E0F0A
S11315309F1F0895FC016150704001900110D8F77D
S1131540809590958E0F9F1F08950F931F93CF93AF
S1131550DF93FB01238121FD03C08FEF9FEF2CC09C
S113156022FF16C0468157812481358142175307D3
S113157044F4A081B1819D012F5F3F4F31832083CB
S11315808C93268137812F5F3F4F3783268314C086
S11315908B01EC01FB010084F185E02D0995892B79
S11315A0E1F6D80116968D919C911797019617969E
S11315B09C938E931697CE01DF91CF911F910F913B
S11315C00895FA01AA27283051F1203181F1E894D5
S11315D06F936E7F6E5F7F4F8F4F9F4FAF4FB1E022
S11315E03ED0B4E03CD0670F781F891F9A1FA11D1D
S11315F0680F791F8A1F911DA11D6A0F711D811D1E
S1131600911DA11D20D009F468943F912AE0269FE2
S113161011243019305D3193DEF6CF010895462F41
S11316204770405D4193B3E00FD0C9F7F6CF462F22
S11316304F70405D4A3318F0495D31FD405241938B
S113164002D0A9F7EACFB4E0A69597958795779548
S11316506795BA95C9F700976105710508959B01CF
S1131660AC010A2E06945795479537952795BA9558
S1131670C9F7620F731F841F951FA01D0895052EBF
S113168097FB1EF400940E94560B57FD07D00E944E
S1131690FA0707FC03D04EF40C94560B5095409572
S11316A0309521953F4F4F4F5F4F0895909580950A
S11316B0709561957F4F8F4F9F4F08950E94A80B9F
S11316C0A59F900DB49F900DA49F800D911D112492
S11316D00895B7FF0C945E0B0E945E0B821B930B64
S11316E008952F923F924F925F926F927F928F92C2
S11316F09F92AF92BF92CF92DF92EF92FF920F939D
S11317001F93CF93DF93CDB7DEB7CA1BDB0B0FB6A6
S1131710F894DEBF0FBECDBF09942A883988488863
S11317205F846E847D848C849B84AA84B984C884F9
S1131730DF80EE80FD800C811B81AA81B981CE0FF0
S1131740D11D0FB6F894DEBF0FBECDBFED010895D5
S1131750A29FB001B39FC001A39F700D811D1124EE
S1131760911DB29F700D811D1124911D0895F8944F
S1051770FFCFA5
S1131772010000000001020344454255473A206932
S11317826E697469616C6973696E6720646F6E65F2
S11317920D0A005072657373207265736574207448
S11317A26F207374617274207468652067616D655B
S11317B22E2E2E0D0A00402D2D2D2D2D2D2D2D2DAD
S11317C22D2D2D2D2D2D2D2D2D400D0A00747572CC
S11317D26E73206C656674203A2000257325640DAF
S11317E20A00696E70757420636F64653A20006F35
S11317F26E6C792075736520746865206E756D62F0
S11318026572732031203C2D3E203620200D0A00C3
S11318120D0A0D0A4445425547203A3A20004350E6
S1131822203D20636F727265637420706C6163651E
S1131832642C205750203D2077726F6E6720706CA5
S1131842616365640D0A003A2009796F7520706C32
S1131852617965643A20007475726E2000257325DF
S113186264257325642564256425640D0A00596F73
S11318727520776F6E207468652067616D6521211C
S11318820D0A00207475726E00796F7520646964A4
S113189220697420696E20002573256425730D0A5E
S11318A200207475726E73007072657373207265B2
S11318B273657420746F207374617274206167613C
S11318C2696E0D0A0077696E6E696E6720636F64D4
S11318D26520776173203A2000796F75206C6F73ED
S11318E26520707265737320726573657420746FFA
S11318F22074727920616761696E0D0A0025642083
S113190225642025642025640D0A00616D6F7574B9
S1131912206F6620636F727265637420706C6163FA
S113192265733A2000616D6F7574206F662077725B
S11319326F6E6720706C6163656420636F72726599
S11319426374206E756D626572733A20000D0A0D20
S10519520A0085
S9030000FC
