S01800004D6567614D696E6479436C65616E75702E73726563C9
S11300000C9434000C9451000C9451000C941C0476
S11300100C9451000C9451000C9451000C94510018
S11300200C9451000C94B5000C9451000C945300A2
S11300300C9451000C9451000C940E020C94510039
S11300400C9451000C9451000C94D0070C94A60706
S11300500C9451000C9451000C9451000C945100D8
S11300600C9451000C94510011241FBECFEFD8E022
S1130070DEBFCDBF12E0A0E0B1E0EAE4FAE102C0E5
S113008005900D92A63DB107D9F723E0A6EDB2E0A5
S113009001C01D92A63FB207E1F70E94C9010C946A
S11300A0230D0C9400001F920F920FB60F9211248F
S11300B02F933F934F935F936F938F939F93EF93FC
S11300C0FF9380E090E041E050E0FC01EE0FFF1F61
S11300D0E452FD4F2081318121303105B1F02230CD
S11300E0310511F1232B71F5FC01EC5FFE4F2081EA
S11300F065B1FA0102C0EE0FFF1F2A95E2F79F01D6
S113010020953095262325B91DC0FC01EC5FFE4FD8
S1130110208165B1FA0102C0EE0FFF1F2A95E2F7B4
S11301209F01262B25B90EC0FC01EC5FFE4F2081F8
S113013065B1FA0102C0EE0FFF1F2A95E2F79F0195
S1130140262725B901968430910509F0BECFFF9189
S1130150EF919F918F916F915F914F913F912F916B
S11301600F900FBE0F901F9018951F920F920FB60D
S11301700F921124CF92DF92EF92FF922F933F932D
S11301804F935F936F937F938F939F93AF93BF939B
S1130190EF93FF93C090D602D090D702E090D8029C
S11301A0F090D90220E030E040EF51E4C701B601FD
S11301B00E94D8088823BCF48091DA029091DB0273
S11301C0019789F420E030E040E85FE3C701B6011D
S11301D00E946C086093D6027093D7028093D80271
S11301E09093D90213C08091DA029091DB020197B7
S11301F069F41D9A1092D6021092D7021092D80276
S11302001092D902C12CD12C760112C0C090D60212
S1130210D090D702E090D802F090D90220E030E0EC
S113022040EC5FE3C701B6010E94D8088823BCF400
S11302308091DA029091DB02029789F420E030E0A9
S113024040E45FE3C701B6010E946C086093D602E4
S11302507093D7028093D8029093D9020FC08091F3
S1130260DA029091DB02029749F41D9A1092D602A9
S11302701092D7021092D8021092D902FF91EF91F6
S1130280BF91AF919F918F917F916F915F914F91AA
S11302903F912F91FF90EF90DF90CF900F900FBE82
S11302A00F901F90189510928B0310928A0310924E
S11302B0DB021092DA0284B18F6284B9E1E8F0E0E3
S11302C0808188608083EFE6F0E0808182608083B3
S11302D0E0E7F0E08081816080830895E1E8F0E068
S11302E0908194609083282F30E0322F2227330F9F
S11302F0032E000C440B550B60E074E284EF90E095
S11303000E946609215031093093890020938800A6
S113031008959C01E1EBF0E0908197609083309325
S1130320DB022093DA020895E1EBF0E080818B7F19
S113033080832D981092DB021092DA02089520E057
S113034030E061E070E0F901EC5FFE4F808145B17F
S1130350FB0102C0EE0FFF1F8A95E2F7CF018095E3
S11303609095842385B92F5F3F4F2430310559F789
S113037010928B0310928A030895E1E8F0E08081E3
S11303808B7F808310928900109288000E949F01C5
S113039008950E943A0287E690E00E94F0070E94C6
S11303A0530178948CE090E090932D0380932C0378
S11303B01092590310925803109237031092360387
S11303C02FEF81EE94E0215080409040E1F700C08F
S11303D0000088E091E00E945308809158039091B6
S11303E05903892BD1F30E9465078CEE93E00E9498
S11303F02D088091360390913703892B31F48CEECC
S113040093E00E94A603892B81F380913603909197
S11304103703892B11F70E945207DFCF1F920F92E7
S11304200FB60F9211248F939F938091E6029091BF
S1130430E702883C910550F48091E6029091E7022E
S113044001969093E7028093E6020DC01092E702B2
S11304501092E6028091E4029091E5020196909355
S1130460E5028093E4029F918F910F900FBE0F904D
S11304701F901895EEE6F0E080818260808384B559
S1130480826084BD89EF87BD85B5836085BDEBE659
S1130490F0E0808180688083E8E6F0E0808181601C
S11304A08083209A279808950F931F93CF93DF9307
S11304B0EC018091E4029091E5020E94ED090E9412
S11304C0E80906E010E0B8010E94520901969983F8
S11304D088830E94E809B8010E94520901969B830F
S11304E08A830E94E809B8010E94520901969D83FB
S11304F08C830E94E809B8010E94520901969F83E7
S11305008E83DF91CF911F910F910895AF92BF9287
S1130510CF92DF92EF92FF920F931F93CF93DF93CB
S1130520E4E5F3E0118210821382128280912E039B
S113053090912F03A0913803B09139038A179B0738
S113054031F421E030E0309355032093540320919B
S1130550300330913103E0913A03F0913B032E17BD
S11305603F0741F4C4E5D3E0488159814F5F5F4FB1
S113057059834883A0903203B090330360913C03C5
S113058070913D03A616B70649F404E513E0E801AB
S1130590488159814F5F5F4F5983488300913403E9
S11305A01091350340913E0350913F030417150702
S11305B079F40F2EF4E5CF2EF3E0DF2EF02DE601D3
S11305C0E880F980DFEFED1AFD0AE601F982E8829E
S11305D0A217B30709F08CC0A1E0B0E0B0935703B1
S11305E0A093560313C0A1E0B0E0B0935703A093C7
S11305F056030CC00F2EF4E5EF2EF3E0FF2EF02D82
S1130600E701AA81BB811196BB83AA838E179F073A
S113061009F072C0A4E5B3E01296ED91FC91139732
S113062031961396FC93EE93129717C0A4E5B3E0AA
S11306301296ED91FC91139731961396FC93EE93D9
S113064012970BC0A4E5B3E01296ED91FC911397B9
S113065031961396FC93EE9312978617970709F039
S11306604FC0E4E5F3E0628173816F5F7F4F738372
S1130670628311C0E4E5F3E0628173816F5F7F4FB1
S11306807383628308C0E4E5F3E0628173816F5F82
S11306907F4F7383628384179507B1F5E4E5F3E034
S11306A0828193810196938382830FC0E4E5F3E012
S11306B08281938101969383828307C0E4E5F3E00A
S11306C082819381019693838283E4E5F3E0208120
S11306D0318182819381820F931F059764F184E0B5
S11306E090E0821B930B909357038093560323C08F
S11306F0AA15BB0569F477CFEA15FB0571F496CF0B
S11307002617370779F4B6CF2417350781F4CECFEF
S1130710A017B10709F07ACF6DCFE017F10709F000
S11307209CCF90CF6017710709F0B5CFACCFA4165A
S1130730B50659F6C3CFDF91CF911F910F91FF906A
S1130740EF90DF90CF90BF90AF900895CF92DF925B
S1130750EF92FF920F931F93CF93DF93FC0180815D
S11307609FEC980F963040F4C82ED12C20E3C21A87
S1130770D10881E090E004C0C12CD12C80E090E04D
S113078021813FEC320F363030F4E22EF12C20E39D
S1130790E21AF10804C0E12CF12C80E090E002811F
S11307A02FEC200F263020F410E00053110904C070
S11307B000E010E080E090E0C3812FEC2C0F2630A5
S11307C028F4D0E0E097009749F402C0C0E0D0E0FC
S11307D08BE291E00E94530880E090E0E8E3F3E0CC
S11307E0D182C082F382E28215830483D783C683D5
S11307F0DF91CF911F910F91FF90EF90DF90CF90F9
S11308000895ECE8F3E0AAE5B3E08CEE93E01182FE
S11308101082138212821582148217821682119614
S11308201C921E9213961C921E921297389614963E
S1130830E817F90761F708951F920F920FB60F9208
S113084011242F933F934F935F936F937F938F93D1
S11308509F93AF93BF93CF93DF93EF93FF931F992E
S11308603CC08091580390915903892B31F081E069
S113087090E090933703809336030E9401040E9412
S1130880BD010E9494018EE293E00E9454028CE424
S113089091E00E945308CEE2D3E08881805D0E94FB
S11308A018088A81805D0E9418088C81805D0E94EE
S11308B018088E81805D0E94180880EA92E00E94E8
S11308C053088CE090E090932D0380932C0381E0F7
S11308D090E09093590380935803FF91EF91DF9137
S11308E0CF91BF91AF919F918F917F916F915F91C4
S11308F04F913F912F910F900FBE0F901F9018951D
S11309002F923F924F925F926F927F928F929F921B
S1130910AF92BF92CF92DF92EF92FF920F931F9309
S1130920CF93DF93CDB7DEB76E970FB6F894DEBFE3
S11309300FBECDBF8AE591E00E9453082FEF31EE40
S113094084E0215030408040E1F700C00000209155
S11309502C0330912D038CE090E0821B930B18162E
S113096019060CF08FC00CE813E00F2EFAE5EF2EF9
S1130970F3E0FF2EF02DA12CB12C0F2EF3E86F2EF7
S1130980F1E07F2EF02D0F2EF3E94F2EF1E05F2ED4
S1130990F02D0F2EF9E92F2EF1E03F2EF02DFE0160
S11309A031966F010F2EFCE08F2E912CF02DFFEF6E
S11309B0AF1ABF0AF80187818F9386818F9385814F
S11309C08F9384818F9383818F9382818F9381818D
S11309D08F9380818F937F926F92BF92AF925F9239
S11309E04F923F922F92DF92CF920E94F809C60154
S11309F00E945308FFEF21EE34E0F15020403040D4
S1130A00E1F700C00000F6012EE111922A95E9F702
S1130A10F70183818F9382818F9328EA31E03F939A
S1130A202F9381818F9380818F93EEEAF1E0FF937E
S1130A30EF9384EB91E09F938F93DF92CF920E9488
S1130A40F809C6010E945308FFEF21EE34E0F1508B
S1130A5020403040E1F700C0000080912C039091C9
S1130A602D03085F1F4FE4E0EE0EF11C9401281BD8
S1130A70390B0FB6F894DEBF0FBECDBFA216B30676
S1130A800CF495CFFFEF21EE34E0F15020403040DC
S1130A90E1F700C000006E960FB6F894DEBF0FBEFB
S1130AA0CDBFDF91CF911F910F91FF90EF90DF9019
S1130AB0CF90BF90AF909F908F907F906F905F90FA
S1130AC04F903F902F9008950F931F93CF93DF93F0
S1130AD0CDB7DEB7A8970FB6F894DEBF0FBECDBF73
S1130AE020912C0330912D038BE090E0DC01A21BBC
S1130AF0B30BAA0FBB1FAA0FBB1FAA0FBB1FA45780
S1130B00BC4F28E0E8E3F3E001900D922A95E1F769
S1130B1040912C0350912D03A4E5B3E02D913C9119
S1130B201197FC01E41BF50BEE0FFF1FEE0FFF1FE7
S1130B30E65AFC4F3183208340912C0350912D03BE
S1130B40FC01E41BF50BEE0FFF1FEE0FFF1FE65A2F
S1130B50FC4F12968D919C9113979383828324303A
S1130B60310509F07AC081E090E00E9489018FEBA1
S1130B7091E00E9453082FEF81EE94E021508040D1
S1130B809040E1F700C000000E94800480912C0393
S1130B9090912D030B9711F520912C0330912D0387
S1130BA084ED91E09F938F938CE090E0821B930BF4
S1130BB09F938F938AED91E09F938F9389EE91E0B9
S1130BC09F938F93CE0101969F938F930E94F80970
S1130BD00FB6F894DEBF0FBECDBF21C020912C0309
S1130BE030912D0382EF91E09F938F938CE090E0FE
S1130BF0821B930B9F938F938AED91E09F938F9326
S1130C0089EE91E09F938F93CE0101969F938F93EA
S1130C100E94F8090FB6F894DEBF0FBECDBFCE0117
S1130C2001960E9453089FEFE2E5F7E09150E040FF
S1130C30F040E1F700C0000089EF91E00E94530802
S1130C402FEF82E597E0215080409040E1F700C00B
S1130C5000001092590310925803E8E3F3E0118264
S1130C601082138212821582148217821682E4E59E
S1130C70F3E0118210821382128280912C039091EE
S1130C802D03892B09F042C082E090E00E94890183
S1130C9080EA92E00E9453080E948004EFEFF1EE94
S1130CA024E0E150F0402040E1F700C0000086E17C
S1130CB092E00E9453080EE213E0F8018081805D07
S1130CC00E941808F8018281805D0E941808F801CA
S1130CD08481805D0E941808F8018681805D0E94ED
S1130CE0180880EA92E00E945308FFEF21EE84E0A6
S1130CF0F15020408040E1F700C000008AE292E019
S1130D000E9453081092590310925803A8960FB6E4
S1130D10F894DEBF0FBECDBFDF91CF911F910F912D
S1130D2008950F931F93CF93DF93CDB7DEB72A9720
S1130D300FB6F894DEBF0FBECDBFECEDF2E011822A
S1130D401082138212821582148217821682809175
S1130D5054039091550364E070E0681B790B1816F6
S1130D60190684F420E030E041E050E0F901EE0F90
S1130D70FF1FE452FD4F518340832F5F3F4F821783
S1130D809307A1F716161706E4F420915603309141
S1130D905703280F391F821793079CF48430910559
S1130DA084F442E050E0FC01EE0FFF1FE452FD4FDB
S1130DB0518340830196821793071CF48430910574
S1130DC091F7ECEDF2E066817781448155812281CF
S1130DD03381808191817F936F935F934F933F938E
S1130DE02F939F938F938EE492E09F938F938E0122
S1130DF00F5F1F4F1F930F930E94F809C8010E94B1
S1130E0053080FB6F894DEBF0FBECDBF2A960FB6B7
S1130E10F894DEBF0FBECDBFDF91CF911F910F912C
S1130E200895CF93DF930E949F010E94910685E06D
S1130E300E946E018CE592E00E945308C4E5D3E061
S1130E408881805D0E94180880EA92E00E9453081D
S1130E502FEF81EE94E0215080409040E1F700C0F4
S1130E60000086E792E00E9453088A81805D0E9418
S1130E70180880EA92E00E9453082FEF81EE94E074
S1130E80215080409040E1F700C0000080912C0385
S1130E9090912D03019790932D0380932C03DF9160
S1130EA0CF9108958CEE93E00E94530880EA92E07B
S1130EB00E9453080E9486020E9411070E94640542
S1130EC08EE992E00E94530808952FEF81EE94E09A
S1130ED0215080409040E1F700C000000E94620869
S1130EE083EA92E00E94530880912C0390912D0391
S1130EF09F938F938AEB92E09F938F9388EB91E07B
S1130F009F938F9380E493E09F938F930E94F809BB
S1130F1080E493E00E9453082FEF81EE94E0215087
S1130F2080409040E1F700C0000088EC92E00E940D
S1130F30530810923703109236038DB79EB7089664
S1130F400FB6F8949EBF0FBE8DBF08951F920F92E7
S1130F500FB60F9211248F939F93EF93FF93909169
S1130F60E9028091E802981769F0E091E802EF5FE6
S1130F70EF71E093E802F0E0E651FD4F8081809349
S1130F80C60005C0E1ECF0E080818F7D8083FF9195
S1130F90EF919F918F910F900FBE0F901F90189516
S1130FA01F920F920FB60F9211248F939F93EF937A
S1130FB0FF938091C600E0910B03EF5FEF71E09324
S1130FC00B0390910A03F0E0E45FFC4F8083FF91F0
S1130FD0EF919F918F910F900FBE0F901F901895D6
S1130FE09093C5008093C40088E98093C100109257
S1130FF00A0310920B031092E8021092E90208957A
S113100006C08091360390913703892B31F4909177
S11310100B0380910A039817A1F3E0910A03EF5F91
S1131020EF71E0930A03F0E0E45FFC4F80810895E0
S11310302091E9022F5F2F719091E8022917E1F3C3
S1131040E22FF0E0E651FD4F80832093E902E1ECCA
S1131050F0E08081806280830895EF92FF920F9385
S11310601F93CF937C01C0E007C080913603909119
S11310703703892B51F4CF5F87010C0F111D0E9498
S11310800008F80180838A3081F78AE0F8018083C0
S1131090CF5FF701EC0FF11D1082CF911F910F91DB
S11310A0FF90EF900895CF93DF93EC01888188231C
S11310B031F021960E94180889918111FBCFDF91AC
S11310C0CF91089510920A0310920B031092E80234
S11310D01092E90208955058BB27AA270E9483085A
S11310E00C9418090E940A0938F00E94110920F092
S11310F039F49F3F19F426F40C9407090EF4E09593
S1131100E7FB0C940109E92F0E94290958F3BA1747
S1131110620773078407950720F079F4A6F50C9409
S11311204B090EF4E0950B2EBA2FA02D0B01B9013B
S113113090010C01CA01A0011124FF27591B99F049
S1131140593F50F4503E68F11A16F040A22F232F55
S1131150342F4427585FF3CF469537952795A795A5
S1131160F0405395C9F77EF41F16BA0B620B730B4C
S1131170840BBAF09150A1F0FF0FBB1F661F771FBD
S1131180881FC2F70EC0BA0F621F731F841F48F472
S1131190879577956795B795F7959E3F08F0B0CFFB
S11311A09395880F08F09927EE0F979587950895E2
S11311B00E94DD0808F481E00895990F0008550F96
S11311C0AA0BE0E8FEEF16161706E807F907C0F0C9
S11311D012161306E407F50798F0621B730B840BD1
S11311E0950B39F40A2661F0232B242B252B21F4AB
S11311F008950A2609F4A140A6958FEF811D811D4B
S1131200089597F99F6780E870E060E008959FEF84
S113121080EC089500240A94161617061806090689
S1131220089500240A941216130614060506089558
S1131230092E0394000C11F4882352F0BB0F40F4E0
S1131240BF2B11F460FF04C06F5F7F4F8F4F9F4F20
S1131250089557FD9058440F551F59F05F3F71F0A2
S11312604795880F97FB991F61F09F3F79F0879509
S11312700895121613061406551FF2CF4695F1DF92
S113128008C0161617061806991FF1CF8695710522
S1131290610508940895E894BB2766277727CB0156
S11312A097F9089597FB072E16F4009407D077FD5D
S11312B009D00E94880907FC05D03EF490958195D9
S11312C09F4F0895709561957F4F0895A1E21A2E5E
S11312D0AA1BBB1BFD010DC0AA1FBB1FEE1FFF1FD6
S11312E0A217B307E407F50720F0A21BB30BE40B26
S11312F0F50B661F771F881F991F1A9469F760956D
S11313007095809590959B01AC01BD01CF01089526
S1131310AA1BBB1B51E107C0AA1FBB1FA617B70717
S113132010F0A61BB70B881F991F5A95A9F7809533
S11313309095BC01CD0108958F929F92AF92BF9278
S1131340CF92DF92EF92FF92CF93DF93EC0168810B
S113135079818A819B81611571058105910521F44B
S113136064E279ED8BE597E02DE133EF41E050E065
S11313700E94AB0C49015A019B01AC01A7EAB1E4FC
S11313800E94CA0C6B017C01ACEEB4EFA501940180
S11313900E94D80CDC01CB018C0D9D1DAE1DBF1D20
S11313A0B7FF03C00197A109B04888839983AA8332
S11313B0BB839F77DF91CF91FF90EF90DF90CF9029
S11313C0BF90AF909F908F9008950E949C090895BC
S11313D080E091E00E949C090895A0E0B0E0809331
S11313E0000190930101A0930201B09303010895B9
S11313F0AEE0B0E0EEEFF9E00C94EB0C0D891E8941
S113140086E08C831A8309838FEF9FE79E838D8305
S1131410AE01475E5F4F6F89788DCE0101960E94C1
S11314201A0AEF81F885E00FF11F10822E96E4E08E
S11314300C94070DABE0B0E0E0E2FAE00C94DD0CB4
S11314406C017B018A01FC0117821682838181FF72
S1131450CCC1CE0101963C01F6019381F70193FDC5
S1131460859193FF81917F01882309F4BAC1853264
S113147039F493FD859193FF81917F01853229F49D
S1131480B60190E00E94110CE7CF912C212C312C55
S1131490FFE1F315D8F08B3279F038F4803279F02B
S11314A08332A1F4232D20611DC08D3261F080337D
S11314B069F4232D216016C0832D8260382EE32D1C
S11314C0E4603E2E2AC0F32DF8601DC037FC2DC009
S11314D020ED280F2A3040F08E32B9F436FC81C159
S11314E0232D2064322E19C036FE06C08AE0989E51
S11314F0200D1124922E11C0EAE02E9E200D1124FD
S1131500222EF32DF0623F2E08C08C3621F4832D59
S11315108068382E02C0883641F4F70193FD859126
S113152093FF81917F018111B3CF982F9F7D9554B3
S1131530933028F40C5F1F4F9FE399830DC08336CB
S113154031F0833771F0833509F059C021C0F801B7
S1131550808189830E5F1F4F88248394912C5301CB
S113156013C02801F2E04F0E511CF801A080B18095
S113157036FE03C0692D70E002C06FEF7FEFC50136
S11315800E94060C4C018201F32DFF773F2E16C0FA
S1131590280122E0420E511CF801A080B18036FEE1
S11315A003C0692D70E002C06FEF7FEFC5010E9498
S11315B0FB0B4C01F32DF0683F2E820133FC1BC062
S11315C0822D90E088169906B0F4B60180E290E08E
S11315D00E94110C2A94F4CFF50137FC859137FE53
S11315E081915F01B60190E00E94110C21102A94B0
S11315F021E0821A91088114910471F7E8C08436BD
S113160011F0893641F5F80137FE07C06081718118
S1131610828193810C5F1F4F08C060817181072E06
S1131620000C880B990B0E5F1F4FF32DFF763F2E96
S113163097FF09C090958095709561957F4F8F4F66
S11316409F4FF0683F2E2AE030E0A3010E944D0C2A
S1131650882E861845C0853731F4232D2F7EB22E6F
S11316602AE030E025C0932D997FB92E8F36C1F042
S113167018F4883579F0B5C0803719F0883721F02F
S1131680B0C0E92FE061BE2EB4FE0DC0FB2DF460A6
S1131690BF2E09C034FE0AC0292F2660B22E06C010
S11316A028E030E005C020E130E002C020E132E073
S11316B0F801B7FE07C060817181828193810C5F5C
S11316C01F4F06C06081718180E090E00E5F1F4F64
S11316D0A3010E944D0C882E8618FB2DFF773F2E08
S11316E036FE0DC0232D2E7FA22E891458F434FE0D
S11316F00BC032FC09C0832D8E7EA82E05C0B82CE9
S1131700A32C03C0B82C01C0B92CA4FE0FC0FE0149
S1131710E80DF11D8081803321F49A2D997EA92E44
S113172009C0A2FE06C0B394B39404C08A2D86787F
S113173009F0B394A3FC11C0A0FE06C0B21488F44F
S1131740280C922C9B180EC0B21460F4B60180E2EF
S113175090E00E94110CB394F7CFB21418F42B1834
S113176002C0982C212CA4FE10C0B60180E390E0A6
S11317700E94110CA2FE17C0A1FC03C088E790E0F0
S113178002C088E590E0B6010CC08A2D867859F035
S1131790A1FE02C08BE201C080E2A7FC8DE2B6018B
S11317A090E00E94110C891438F4B60180E390E0B3
S11317B00E94110C9A94F7CF8A94F301E80DF11D5D
S11317C08081B60190E00E94110C8110F5CF222097
S11317D009F442CEB60180E290E00E94110C2A94F2
S11317E0F6CFF6018681978102C08FEF9FEF2B968B
S11317F0E2E10C94F90CFC01059061507040011079
S1131800D8F7809590958E0F9F1F0895FC01615025
S1131810704001900110D8F7809590958E0F9F1F0E
S113182008950F931F93CF93DF93FB01238121FD31
S113183003C08FEF9FEF2CC022FF16C04681578153
S1131840248135814217530744F4A081B1819D015D
S11318502F5F3F4F318320838C93268137812F5F05
S11318603F4F3783268314C08B01EC01FB010084B6
S1131870F185E02D0995892BE1F6D80116968D9115
S11318809C911797019617969C938E931697CE0169
S1131890DF91CF911F910F910895FA01AA27283063
S11318A051F1203181F1E8946F936E7F6E5F7F4F29
S11318B08F4F9F4FAF4FB1E03ED0B4E03CD0670FA5
S11318C0781F891F9A1FA11D680F791F8A1F911DF8
S11318D0A11D6A0F711D811D911DA11D20D009F448
S11318E068943F912AE0269F11243019305D31938A
S11318F0DEF6CF010895462F4770405D4193B3E073
S11319000FD0C9F7F6CF462F4F70405D4A3318F019
S1131910495D31FD4052419302D0A9F7EACFB4E0CA
S1131920A6959795879577956795BA95C9F7009782
S11319306105710508959B01AC010A2E0694579523
S1131940479537952795BA95C9F7620F731F841F7A
S1131950951FA01D0895052E97FB1EF400940E9468
S1131960C20C57FD07D00E94660907FC03D04EF451
S11319700C94C20C50954095309521953F4F4F4F94
S11319805F4F089590958095709561957F4F8F4F27
S11319909F4F08950E94140DA59F900DB49F900D24
S11319A0A49F800D911D11240895B7FF0C94CA0CB7
S11319B00E94CA0C821B930B08952F923F924F9260
S11319C05F926F927F928F929F92AF92BF92CF92CB
S11319D0DF92EF92FF920F931F93CF93DF93CDB7D4
S11319E0DEB7CA1BDB0B0FB6F894DEBF0FBECDBF4C
S11319F009942A88398848885F846E847D848C841D
S1131A009B84AA84B984C884DF80EE80FD800C8125
S1131A101B81AA81B981CE0FD11D0FB6F894DEBF08
S1131A200FBECDBFED010895A29FB001B39FC001C9
S1131A30A39F700D811D1124911DB29F700D811DF6
S10D1A401124911D0895F894FFCFBE
S1131A4A010000000001020350726573732072657D
S1131A5A73657420746F207374617274207468657A
S1131A6A2067616D652E2E2E0D0A006F6E6C79202B
S1131A7A75736520746865206E756D62657273206E
S1131A8A31203C2D3E203620200D0A000D0A0D0A75
S1131A9A4445425547203A3A20004350203D2063AA
S1131AAA6F727265637420706C616365642C20576D
S1131ABA50203D2077726F6E6720706C6163656495
S1131ACA0D0A003A2009796F7520706C6179656492
S1131ADA3A20007475726E200025732564257325D7
S1131AEA64256425642564002057503A2000204365
S1131AFA503A200025732564257325640D0A00597C
S1131B0A6F7520776F6E207468652067616D652133
S1131B1A210D0A00207475726E00796F752064694C
S1131B2A6420697420696E20002573256425730D69
S1131B3A0A00207475726E73007072657373207272
S1131B4A6573657420746F2073746172742061679D
S1131B5A61696E0D0A0077696E6E696E6720636F3C
S1131B6A646520776173203A2000796F75206C6F61
S1131B7A736520707265737320726573657420745B
S1131B8A6F2074727920616761696E0D0A00256499
S1131B9A2025642025642025640D0A00616D6F7573
S1131BAA74206F6620636F727265637420706C614F
S1131BBA6365733A2000616D6F7574206F662077D0
S1131BCA726F6E6720706C6163656420636F7272F2
S1131BDA656374206E756D626572733A20000D0A2E
S1131BEA0D0A00402D2D2D2D2D2D2D2D2D2D2D2D74
S1131BFA2D2D2D2D2D2D400D0A007475726E732016
S1131C0A6C656674203A2000696E70757420636F7F
S1091C1A64653A2000009D
S9030000FC
