S01800004D6567614D696E6479436C65616E75702E73726563C9
S11300000C9434000C9451000C9451000C94030390
S11300100C9451000C9451000C9451000C94510018
S11300200C9451000C9451000C9451000C94510008
S11300300C9451000C9451000C94D2000C94510077
S11300400C9451000C9451000C9443050C94190524
S11300500C9451000C9451000C9451000C945100D8
S11300600C9451000C94510011241FBECFEFD8E022
S1130070DEBFCDBF12E0A0E0B1E0E2E6F3E102C0F2
S113008005900D92A838B107D9F723E0A8E8B2E0AB
S113009001C01D92A839B207E1F70E9453000C94E5
S11300A0AF090C9400000E94020187E690E00E94D0
S11300B0630578948CE090E09093D1028093D00211
S11300C01092FD021092FC021092DB021092DA02EE
S11300D084E091E00E94C6050F2EFBE3EF2EF1E0D1
S11300E0FF2EF02D09E411E0C4EED2E0CC2EDD2E7B
S11300F08091FC029091FD02892BD1F32FEF81EEC8
S113010094E0215080409040E1F700C000000E943C
S1130110D50584E291E00E94C6058091D0029091B9
S1130120D1029F938F93FF92EF921F930F93DF93CC
S1130130CF930E9462068C2D9D2D0E94C6059FEFD1
S113014021EE84E0915020408040E1F700C000009F
S113015080E591E00E94C6051092DB021092DA025B
S11301608DB79EB708960FB6F8949EBF0FBE8DBF8D
S11301708EE893E00E94A0058091DA029091DB0260
S1130180892B31F48EE893E00E948D02892B81F350
S11301908091DA029091DB02892B09F0A9CF0E94A9
S11301A00605A6CF1F920F920FB60F9211248F93BC
S11301B09F9380918A0290918B02883C910550F420
S11301C080918A0290918B02019690938B02809386
S11301D08A0211C010928B0210928A0295B181E0BA
S11301E0892785B98091880290918902019690931C
S11301F08902809388029F918F910F900FBE0F9078
S11302001F901895EEE6F0E080818260808384B5CB
S1130210826084BD89EF87BD85B5836085BDEBE6CB
S1130220F0E0808180688083E8E6F0E0808181608E
S11302308083209A279808950F931F93CF93DF9379
S1130240EC0180918802909189020E9457060E94D5
S1130250520606E010E0B8010E94DE05019699837B
S113026088830E945206B8010E94DE0501969B8392
S11302708A830E945206B8010E94DE0501969D837E
S11302808C830E945206B8010E94DE0501969F836A
S11302908E83DF91CF911F910F910895AF92BF92FA
S11302A0CF92DF92EF92FF920F931F93CF93DF933E
S11302B0E8EFF2E011821082138212826091D2027E
S11302C07091D3020091DC021091DD026017710776
S11302D031F481E090E09093F9028093F802409128
S11302E0D4025091D502C091DE02D091DF024C17A6
S11302F05D0739F4E8EFF2E0808191810196918302
S113030080832091D6023091D702A091E002B0916F
S1130310E1022A173B0739F4E8EFF2E0808191818A
S1130320019691838083A090D802B090D9028091E5
S1130330E2029091E302A816B90679F40F2EF8EFC1
S1130340CF2EF2E0DF2EF02DF601E080F180FFEFFA
S1130350EF1AFF0AF601F182E0820417150739F457
S1130360EE24E394F12CF092FB02E092FA020217DD
S1130370130779F40F2EF8EFCF2EF2E0DF2EF02DD5
S1130380F601E280F380FFEFEF1AFF0AF601F38231
S1130390E2820A151B0569F40F2EF8EFEF2EF2E046
S11303A0FF2EF02DF701028113810F5F1F4F13837E
S11303B002836C177D0769F40F2EF8EFEF2EF2E03D
S11303C0FF2EF02DF701028113810F5F1F4F13835E
S11303D00283C217D30769F40F2EF8EFEF2EF2E071
S11303E0FF2EF02DF701028113810F5F1F4F13833E
S11303F00283CA15DB0541F408EF12E0F801C2815B
S1130400D3812196D383C2836A177B0741F408EF13
S113041012E0F801C281D3812196D383C2834A17A3
S11304205B0741F408EF12E0F801C281D381219601
S1130430D383C283AA15BB0559F4A8EFB2E0129680
S1130440ED91FC91139731961396FC93EE931297CA
S11304506817790741F4E8EFF2E0628173816F5F16
S11304607F4F738362834817590741F4E8EFF2E042
S1130470428153814F5F5F4F53834283281739076B
S113048039F4E8EFF2E082819381019693838283C9
S1130490DF91CF911F910F91FF90EF90DF90CF905C
S11304A0BF90AF900895CF93DF938DE591E00E94C4
S11304B0C605C8EFD2E08881805D0E948B0584E880
S11304C092E00E94C6052FEF81EE94E02150804017
S11304D09040E1F700C0000087E791E00E94C60564
S11304E08A81805D0E948B0584E892E00E94C605A3
S11304F02FEF81EE94E0215080409040E1F700C05E
S113050000008091D0029091D10201979093D10282
S11305108093D002DF91CF910895CF92DF92EF9232
S1130520FF920F931F93CF93DF93FC0180819FEC85
S1130530980F963040F4C82ED12C20E3C21AD1086B
S113054081E090E004C0C12CD12C80E090E02181B6
S11305503FEC320F363030F4E22EF12C20E3E21A75
S1130560F10804C0E12CF12C80E090E002812FEC32
S1130570200F263020F410E00053110904C000E0DD
S113058010E080E090E0C3812FEC2C0F263028F49B
S1130590D0E0E097009749F402C0C0E0D0E08FE9D2
S11305A091E00E94C60580E090E0ECEDF2E0D1829B
S11305B0C082F382E28215830483D783C683DF91EA
S11305C0CF911F910F91FF90EF90DF90CF900895FE
S11305D0EEE2F3E0AEEFB2E08EE893E01182108237
S11305E013821282158214821782168211961C922B
S11305F01E9213961C921E92129738961496E81720
S1130600F90761F708951F920F920FB60F92112404
S11306102F933F934F935F936F937F938F939F9306
S1130620AF93BF93CF93DF93EF93FF931F9938C09A
S11306308091FC029091FD02892B31F081E090E0E1
S11306409093DB028093DA020E94E80282ED92E04A
S11306500E941C0180EC91E00E94C605C2EDD2E02C
S11306608881805D0E948B058A81805D0E948B0554
S11306708C81805D0E948B058E81805D0E948B053C
S113068084E892E00E94C6058CE090E09093D10249
S11306908093D00281E090E09093FD028093FC026D
S11306A0FF91EF91DF91CF91BF91AF919F918F9186
S11306B07F916F915F914F913F912F910F900FBE5A
S11306C00F901F9018954F925F926F927F928F9226
S11306D09F92AF92BF92CF92DF92EF92FF920F93CD
S11306E01F93CF93DF93CDB7DEB76E970FB6F89411
S11306F0DEBF0FBECDBF2091D0023091D1028CE07D
S113070090E0821B930B181619060CF05CC00EE2E5
S113071013E0E12CF12C0F2EFEECAF2EF1E0BF2EF6
S1130720F02D0F2EFCED6F2EF1E07F2EF02D0F2E0D
S1130730F2EE4F2EF1E05F2EF02D9E012F5F3F4F22
S113074069010F2EFCE08F2E912CF02D3FEFE31A60
S1130750F30AF80187818F9386818F9385818F9324
S113076084818F9383818F9382818F9381818F93EF
S113077080818F93BF92AF92FF92EF927F926F929C
S11307805F924F92DF92CF920E946206C6010E944E
S1130790C605FFEF21EE34E0F15020403040E1F790
S11307A000C000008091D0029091D102085F1F4FD9
S11307B0F401E81BF90B0FB6F894DEBF0FBECDBFF2
S11307C0EE16FF061CF26E960FB6F894DEBF0FBE4F
S11307D0CDBFDF91CF911F910F91FF90EF90DF90EC
S11307E0CF90BF90AF909F908F907F906F905F90CD
S11307F04F9008950F931F93CF93DF93CDB7DEB738
S1130800A8970FB6F894DEBF0FBECDBF2091D002DB
S11308103091D1028BE090E0DC01A21BB30BAA0F54
S1130820BB1FAA0FBB1FAA0FBB1FA25DBC4F28E0B2
S1130830ECEDF2E001900D922A95E1F72091D002BF
S11308403091D102FC01E21BF30BEE0FFF1FEE0F00
S1130850FF1FE250FD4F8091F8029091F902A091A0
S1130860FA02B091FB0280839183A283B3838091C7
S1130870F8029091F902049709F06DC083EF91E0BA
S11308800E94C6052FEF81EE94E0215080409040F5
S1130890E1F700C000000E9463038091D0029091B0
S11308A0D1020B9711F52091D0023091D10288E04A
S11308B092E09F938F938CE090E0821B930B9F9325
S11308C08F938EE092E09F938F938DE192E09F93BC
S11308D08F93CE0101969F938F930E9462060FB669
S11308E0F894DEBF0FBECDBF21C02091D00230915D
S11308F0D10286E292E09F938F938CE090E0821B7A
S1130900930B9F938F938EE092E09F938F938DE14F
S113091092E09F938F93CE0101969F938F930E94B1
S113092062060FB6F894DEBF0FBECDBFCE010196AE
S11309300E94C6059FEFE1EEF4E09150E040F040E4
S1130940E1F700C000008DE292E00E94C60510921B
S1130950FD021092FC02ECEDF2E01182108213828F
S113096012821582148217821682E8EFF2E0118255
S11309701082138212828091D0029091D102892B2D
S1130980D1F50E9463032FEF81EE94E02150804063
S11309909040E1F700C000008AE492E00E94C6059E
S11309A002ED12E0F8018081805D0E948B05F80160
S11309B08281805D0E948B05F8018481805D0E94A4
S11309C08B05F8018681805D0E948B0584E892E0A6
S11309D00E94C605FFEF21EE84E0F15020408040E4
S11309E0E1F700C000008EE592E00E94C605109277
S11309F0FD021092FC02A8960FB6F894DEBF0FBE5B
S1130A00CDBFDF91CF911F910F9108958EE893E0B0
S1130A100E94C60584E892E00E94C6050E944E0129
S1130A200E9453020E94FA0382E892E00E94C605E3
S1130A3008951F920F920FB60F9211248F939F93D4
S1130A40EF93FF9390918D0280918C02981769F037
S1130A50E0918C02EF5FEF71E0938C02F0E0E257DB
S1130A60FD4F80818093C60005C0E1ECF0E08081F9
S1130A708F7D8083FF91EF919F918F910F900FBE97
S1130A800F901F9018951F920F920FB60F9211247A
S1130A908F939F93EF93FF938091C600E091AF02F1
S1130AA0EF5FEF71E093AF029091AE02F0E0E0559A
S1130AB0FD4F8083FF91EF919F918F910F900FBE17
S1130AC00F901F9018959093C5008093C40088E9F7
S1130AD08093C1001092AE021092AF0210928C0269
S1130AE010928D02089506C08091DA029091DB0283
S1130AF0892B31F49091AF028091AE029817A1F343
S1130B00E091AE02EF5FEF71E093AE02F0E0E055EA
S1130B10FD4F8081089520918D022F5F2F71909158
S1130B208C022917E1F3E22FF0E0E257FD4F8083B6
S1130B3020938D02E1ECF0E080818062808308954F
S1130B40EF92FF920F931F93CF937C01C0E007C0F5
S1130B508091DA029091DB02892B51F4CF5F8701F7
S1130B600C0F111D0E947305F80180838A3081F7F0
S1130B708AE0F8018083CF5FF701EC0FF11D10824A
S1130B80CF911F910F91FF90EF900895CF93DF9332
S1130B90EC018881882331F021960E948B0589918C
S1130BA08111FBCFDF91CF9108951092AE02109284
S1130BB0AF0210928C0210928D02089597FB072EBB
S1130BC016F4009407D077FD09D00E94F20507FCC3
S1130BD005D03EF4909581959F4F08957095619549
S1130BE07F4F0895AA1BBB1B51E107C0AA1FBB1F5F
S1130BF0A617B70710F0A61BB70B881F991F5A95A5
S1130C00A9F780959095BC01CD0108958F929F928C
S1130C10AF92BF92CF92DF92EF92FF92CF93DF9386
S1130C20EC01688179818A819B8161157105810557
S1130C30910521F464E279ED8BE597E02DE133EF42
S1130C4041E050E00E94150949015A019B01AC01A1
S1130C50A7EAB1E40E9434096B017C01ACEEB4EF65
S1130C60A50194010E944209DC01CB018C0D9D1D5C
S1130C70AE1DBF1DB7FF03C00197A109B04888830B
S1130C809983AA83BB839F77DF91CF91FF90EF90E5
S1130C90DF90CF90BF90AF909F908F9008950E9467
S1130CA00606089580E091E00E9406060895A0E0FB
S1130CB0B0E08093000190930101A0930201B093EE
S1130CC003010895AEE0B0E0E8E6F6E00C945509BF
S1130CD00D891E8986E08C831A8309838FEF9FE731
S1130CE09E838D83AE01475E5F4F6F89788DCE0101
S1130CF001960E948406EF81F885E00FF11F1082AF
S1130D002E96E4E00C947109ABE0B0E0EAE8F6E07A
S1130D100C9447096C017B018A01FC01178216823D
S1130D20838181FFCCC1CE0101963C01F601938100
S1130D30F70193FD859193FF81917F01882309F445
S1130D40BAC1853239F493FD859193FF81917F0176
S1130D50853229F4B60190E00E947B08E7CF912CFC
S1130D60212C312CFFE1F315D8F08B3279F038F4D3
S1130D70803279F08332A1F4232D20611DC08D329D
S1130D8061F0803369F4232D216016C0832D8260C5
S1130D90382EE32DE4603E2E2AC0F32DF8601DC0EA
S1130DA037FC2DC020ED280F2A3040F08E32B9F4E4
S1130DB036FC81C1232D2064322E19C036FE06C0B4
S1130DC08AE0989E200D1124922E11C0EAE02E9EF6
S1130DD0200D1124222EF32DF0623F2E08C08C36F4
S1130DE021F4832D8068382E02C0883641F4F7013F
S1130DF093FD859193FF81917F018111B3CF982F4A
S1130E009F7D9554933028F40C5F1F4F9FE3998383
S1130E100DC0833631F0833771F0833509F059C042
S1130E2021C0F801808189830E5F1F4F8824839439
S1130E30912C530113C02801F2E04F0E511CF8010C
S1130E40A080B18036FE03C0692D70E002C06FEF50
S1130E507FEFC5010E9470084C018201F32DFF77DA
S1130E603F2E16C0280122E0420E511CF801A0803A
S1130E70B18036FE03C0692D70E002C06FEF7FEFD2
S1130E80C5010E9465084C01F32DF0683F2E8201D4
S1130E9033FC1BC0822D90E088169906B0F4B6018D
S1130EA080E290E00E947B082A94F4CFF50137FC9D
S1130EB0859137FE81915F01B60190E00E947B0825
S1130EC021102A9421E0821A91088114910471F767
S1130ED0E8C0843611F0893641F5F80137FE07C0C1
S1130EE060817181828193810C5F1F4F08C0608192
S1130EF07181072E000C880B990B0E5F1F4FF32D89
S1130F00FF763F2E97FF09C0909580957095619567
S1130F107F4F8F4F9F4FF0683F2E2AE030E0A301B0
S1130F200E94B708882E861845C0853731F4232DD2
S1130F302F7EB22E2AE030E025C0932D997FB92E62
S1130F408F36C1F018F4883579F0B5C0803719F0C0
S1130F50883721F0B0C0E92FE061BE2EB4FE0DC089
S1130F60FB2DF460BF2E09C034FE0AC0292F266071
S1130F70B22E06C028E030E005C020E130E002C017
S1130F8020E132E0F801B7FE07C0608171818281FF
S1130F9093810C5F1F4F06C06081718180E090E0F7
S1130FA00E5F1F4FA3010E94B708882E8618FB2DE1
S1130FB0FF773F2E36FE0DC0232D2E7FA22E8914DF
S1130FC058F434FE0BC032FC09C0832D8E7EA82E4B
S1130FD005C0B82CA32C03C0B82C01C0B92CA4FEA6
S1130FE00FC0FE01E80DF11D8081803321F49A2D9C
S1130FF0997EA92E09C0A2FE06C0B394B39404C07E
S11310008A2D867809F0B394A3FC11C0A0FE06C013
S1131010B21488F4280C922C9B180EC0B21460F4FD
S1131020B60180E290E00E947B08B394F7CFB2143B
S113103018F42B1802C0982C212CA4FE10C0B60161
S113104080E390E00E947B08A2FE17C0A1FC03C0CD
S113105088E790E002C088E590E0B6010CC08A2DD4
S1131060867859F0A1FE02C08BE201C080E2A7FCA1
S11310708DE2B60190E00E947B08891438F4B60131
S113108080E390E00E947B089A94F7CF8A94F3015E
S1131090E80DF11D8081B60190E00E947B0881106B
S11310A0F5CF222009F442CEB60180E290E00E94FE
S11310B07B082A94F6CFF6018681978102C08FEFD0
S11310C09FEF2B96E2E10C946309FC0105906150BB
S11310D070400110D8F7809590958E0F9F1F08954A
S11310E0FC016150704001900110D8F780959095F3
S11310F08E0F9F1F08950F931F93CF93DF93FB01D0
S1131100238121FD03C08FEF9FEF2CC022FF16C067
S113111046815781248135814217530744F4A081C5
S1131120B1819D012F5F3F4F318320838C932681B2
S113113037812F5F3F4F3783268314C08B01EC0127
S1131140FB010084F185E02D0995892BE1F6D80196
S113115016968D919C911797019617969C938E9352
S11311601697CE01DF91CF911F910F910895FA0147
S1131170AA27283051F1203181F1E8946F936E7FD2
S11311806E5F7F4F8F4F9F4FAF4FB1E03ED0B4E0C3
S11311903CD0670F781F891F9A1FA11D680F791F04
S11311A08A1F911DA11D6A0F711D811D911DA11D15
S11311B020D009F468943F912AE0269F1124301925
S11311C0305D3193DEF6CF010895462F4770405DC0
S11311D04193B3E00FD0C9F7F6CF462F4F70405D6F
S11311E04A3318F0495D31FD4052419302D0A9F7CA
S11311F0EACFB4E0A6959795879577956795BA95C4
S1131200C9F700976105710508959B01AC010A2E89
S113121006945795479537952795BA95C9F7620F60
S1131220731F841F951FA01D0895052E97FB1EF4A0
S113123000940E942C0957FD07D00E947E0907FCE8
S113124003D04EF40C942C0950954095309521957B
S11312503F4F4F4F5F4F08959095809570956195DE
S11312607F4F8F4F9F4F08950E94A009A59F900D17
S1131270B49F900DA49F800D911D11240895B7FF74
S11312800C9434090E943409821B930B08952F9205
S11312903F924F925F926F927F928F929F92AF9202
S11312A0BF92CF92DF92EF92FF920F931F93CF934F
S11312B0DF93CDB7DEB7CA1BDB0B0FB6F894DEBFE6
S11312C00FBECDBF09942A88398848885F846E840C
S11312D07D848C849B84AA84B984C884DF80EE8056
S11312E0FD800C811B81AA81B981CE0FD11D0FB65F
S11312F0F894DEBF0FBECDBFED010895A1E21A2E12
S1131300AA1BBB1BFD010DC0AA1FBB1FEE1FFF1FA5
S1131310A217B307E407F50720F0A21BB30BE40BF5
S1131320F50B661F771F881F991F1A9469F760953C
S11313307095809590959B01AC01BD01CF010895F6
S1131340A29FB001B39FC001A39F700D811D112402
S1131350911DB29F700D811D1124911D0895F89463
S1051360FFCFB9
S11313620100000050726573732072657365742006
S1131372746F207374617274207468652067616D80
S1131382650D0A00402D2D2D2D2D2D2D2D2D2D2DAC
S11313922D2D2D2D2D2D2D400D0A007475726E7379
S11313A2206C656674203A2000257325640D0A00BA
S11313B2696E70757420636F64653A2000616D6FA5
S11313C27574206F6620636F727265637420706C2B
S11313D2616365733A2000616D6F7574206F6620D6
S11313E277726F6E6720706C6163656420636F72DD
S11313F272656374206E756D626572733A20006F54
S11314026E6C792075736520746865206E756D62E3
S11314126572732031203C2D3E203620200D0A00B7
S11314220D0A0D0A4445425547203A3A20002079D4
S11314326F7520706C617965643A20007475726E00
S11314422000257325642573256425642564256499
S11314520D0A00596F7520776F6E207468652067D6
S1131462616D6521210D0A00207475726E00796F19
S1131472752064696420697420696E2000257325CF
S11314826425730D0A00207475726E7300707265A0
S1131492737320726573657420746F207374617240
S11314A27420616761696E0D0A0077696E6E696EF8
S11314B26720636F646520776173203A2000796F37
S11314C275206C6F73652070726573732072657317
S11314D2657420746F2074727920616761696E0D7E
S10B14E20A000D0A0D0A0000C6
S9030000FC
